:020000040800F2
:10000000E81F0020A1010008DB2B0008C127000821
:10001000D92B0008D3030008A959000800000000EC
:10002000000000000000000000000000E1410008A6
:100030009104000800000000572D0008ED41000861
:10004000BB010008BB010008BB010008BB010008A0
:10005000BB010008BB010008BB010008BB01000890
:10006000BB010008BB010008BB010008BB01000880
:10007000BB010008BB010008BB010008BB01000870
:10008000BB010008BB010008BB010008BB01000860
:10009000BB010008BB010008BB010008BB01000850
:1000A000BB010008BB010008BB010008BB01000840
:1000B000BB010008BB010008BB010008BB01000830
:1000C000BB010008BB010008BB010008BB01000820
:1000D000BB010008BB010008BB010008BB01000810
:1000E000BB010008BB010008BB010008BB01000800
:1000F000BB010008BB010008BB010008BB010008F0
:10010000BB01000829360008BB010008BB0100083C
:10011000BB010008BB010008BB010008BB010008CF
:10012000BB010008BB010008BB010008D5030008A3
:10013000BB010008BB010008BB010008BB010008AF
:10014000BB010008BB010008BB010008DD2B000853
:10015000BB010008E1030008BB010008BB01000867
:10016000BB010008BB010008BB010008BB0100087F
:10017000BB010008BB010008BB0100080000000033
:10018000BB010008BB010008DFF810D000F08EF8BA
:1001900000480047395A0008AFF30080E81F0020EC
:1001A0000648804706480047FEE7FEE7FEE7FEE711
:1001B000FEE7FEE7FEE7FEE7FEE7FEE77542000822
:1001C000890100082DE9F05F0546002092469B4614
:1001D00088460646814640241BE02846414647465D
:1001E000224600F053F853465A46C01A914110D3A4
:1001F00011461846224600F03AF82D1A67EB01081E
:100200004F4622460120002100F031F817EB00098B
:100210004E41201EA4F10104DFDC484631462A4647
:100220004346BDE8F09F40EA01039B0703D009E085
:1002300008C9121F08C0042AFAD203E011F8013BD2
:1002400000F8013B521EF9D27047D2B201E000F82B
:10025000012B491EFBD270470022F6E710B513466A
:100260000A4604461946FFF7F0FF204610BD202A33
:1002700004DB203A00FA02F1002070479140C2F1FD
:10028000200320FA03F3194390407047202A04DB2F
:10029000203A21FA02F00021704721FA02F3D040FF
:1002A000C2F120029140084319467047064C074DA1
:1002B00006E0E06840F0010394E807009847103436
:1002C000AC42F6D3FFF764FF205B0008405B0008F8
:1002D00070B58C1810F8015B15F0070301D110F808
:1002E000013B2A1106D110F8012B03E010F8016B35
:1002F00001F8016B5B1EF9D12B0705D40023521EB8
:100300000DD401F8013BFAE710F8013BCB1A921C1F
:1003100003E013F8015B01F8015B521EF9D5A1421D
:10032000D8D3002070BD70470146014801F084BC5D
:100330007C01002010B5044801F090FC042801D095
:10034000012010BD002010BD7C01002010B500F080
:1003500015F8012801D0012010BD074801F09CFDCF
:10036000040006D14FF40061034801F01DFB00B109
:100370000124204610BD00007C01002008B50120AA
:100380008DF800009DF8000008BD000038B500247D
:10039000009313460A460146034801F065FE00B18A
:1003A0000124204638BD00007C0100207047000079
:1003B00038B50024009313460A460146034801F06D
:1003C000EFFF00B10124204638BD00007C01002071
:1003D0007047FEE7014800F095B8000000020020D9
:1003E000014800F08FB80000600200200168182367
:1003F000CAB2103AB2FBF3F2054B6FF30901032ABC
:100400009B5CC36500D9091D8165084670470000E3
:10041000005B000810B5014600208B698A6A4FF026
:10042000C07453B1B3F5005F15D072B1012A0CD07E
:10043000022A0AD0032A09D104E01AB1012A06D0FF
:10044000022A03D1C96AC90100D5012010BDC96AB9
:10045000A142FAD010BD002AF7D0012AF2D0022A18
:10046000F3D0032AF3D010BD30B50468256825F415
:1004700080252560046863608368402B036803D08F
:1004800099600068C26030BD9A600068C16030BD8C
:1004900070477047002200F001B8000030B50E4BE5
:1004A000054601205C7A002C14D1587A1C54587AE5
:1004B00003EB800045605D7A03F108002A54587A06
:1004C000421C5A72303008703A2048702F208870D1
:1004D000CC70002030BD0000D80B002090F8351003
:1004E000022903D08021416501207047052180F851
:1004F00035100068016821F001010160002070479B
:10050000406D70472DE9F84304464FF00009CDF8DF
:10051000009063484FF41651A56D0068B0FBF1F7E9
:100520002E6894F85C10082000FA01F131420FD0D7
:1005300021680A6852070BD50A6822F004020A6093
:1005400094F85C108840A860606D40F00100606520
:1005500094F85C104FF0010808FA01F0304208D01E
:1005600021684969090604D5A860606D40F0020061
:10057000606594F85C1004208840304208D02168FF
:100580000968890704D5A860606D40F004006065C3
:1005900094F85C1010208840304218D02168096817
:1005A000090714D5A86020680168490304D50068CC
:1005B000000308D5A16C07E00168C90503D40168F0
:1005C00021F008010160216C09B12046884794F8A8
:1005D0005C1020208840304231D021680968C9066B
:1005E0002DD5A86094F8350005282068016806D04C
:1005F000490347D5006800031DD4616C1CE021F05D
:10060000160101602068416921F080014161206C80
:1006100008B9A06C20B12068016821F008010160D0
:1006200094F85C103F208840A86084F8349084F8E7
:100630003580216D1FE0E16B09B120468847606D70
:1006400000282BD0606DC00714D0052084F8350039
:100650002068016821F0010101600098401C0090B1
:10066000B84203D820680068C007F6D184F83490F7
:1006700084F83580E16C002910D001B02046BDE837
:10068000F04308470168C905D5D4016821F010017D
:10069000016084F8349084F83580CCE7BDE8F883B5
:1006A000880000202DE9F041044600F08BF9064651
:1006B0005CB1002584F83450022084F835002068AD
:1006C000016821F0010101600DE00120BDE8F08129
:1006D00000F078F9801B052805D9202060650320EB
:1006E00084F83500F2E720680068C007F0D122687E
:1006F000116820480140D4E901031843D4E90336C6
:100700003343184363691843A3691843E3691843E3
:10071000236A18430843616A042903D1D4E90B13FF
:1007200019430843106020684069666A20F0070199
:1007300030460E43012704280CD1A06A0643E06A24
:1007400040B12046FFF766FE20B14020606584F886
:100750003570BAE7206846612046FFF747FE94F8F7
:100760005C203F2191408160656584F835700020F0
:10077000ACE700003F8010F02DE9F0410446866DA3
:1007800090F83400002501280DD0012084F83400B1
:1007900094F835700020012F07D084F8340002252A
:1007A0002846BDE8F0810220FBE7022784F8357077
:1007B00060652046FFF758FE94F85C103F208840A3
:1007C000B0602068016841F016010160206C20B122
:1007D0002068016841F0080101602068016841F06B
:1007E00001010160DCE7000070B5044600F0EAF8A2
:1007F0000546601C02D004480078044400F0E2F88A
:10080000401BA042FAD370BD7C0000202DE9F84FB8
:1008100000224FF0010803254FF00F0E0B6808FA75
:1008200002F42340A3426ED14E68012E05D0022E61
:1008300003D0112E01D0122E12D186684FEA420C3D
:1008400005FA0CF7BE43CF6807FA0CF73743876009
:100850004668A6430C79C4F30014944034434460C2
:10086000C668570005FA07FC8C6826EA0C06BC40EF
:100870003443C4604C68022C01D0122C13D1D4082C
:1008800000EB8404A346D4F8209054074FEAD46ABE
:100890000EFA0AF629EA06090E6906FA0AF646EA87
:1008A0000906CBF8206006680C7926EA0C0604F0ED
:1008B0000304BC40344304604C68E40065D5364C06
:1008C000266846F480462660246822F0030604F475
:1008D00080440094314C3444A446D4F80848960728
:1008E000370F0EFA07F6B4432D4EB04201D1002661
:1008F00024E02C4EB04201D101261FE02A4EB04226
:1009000002D102261AE040E0284EB04201D103266F
:1009100014E0274EB04201D104260FE0254EB0422C
:1009200001D105260AE0244EB04201D1062605E099
:10093000224EB04201D1072600E00826BE402643E1
:10094000CCF808681E4E34684F689C43FF0300D5FE
:100950001C4334601A4C241D26684F689E43BF0315
:1009600000D51E432660164E083634684F689C43F7
:10097000FF0200D51C433460114E0C3634684F68BA
:100980009C43BF0200D51C433460521C102AFFF464
:1009900045AFBDE8F88F0000443802400030014008
:1009A000000002400004024000080240000C024027
:1009B000001002400014024000180240001C0240D7
:1009C000003C014001488068704700007C00002026
:1009D0000248816802781144816070477C000020E1
:1009E0000B4810B5016841F400710160016841F4E1
:1009F00080610160016841F480710160032000F0B2
:100A00006FF8002000F006F800F024F8002010BD78
:100A1000003C024070B50D4D04464FF47A712878C1
:100A2000B1FBF0F00A490968B1FBF0F001F038FEC3
:100A300048B9102C07D200222146501E00F030F891
:100A400000206C6070BD012070BD00007C000020A3
:100A5000880000200A4808B5016841F4804101601F
:100A6000006800F4804000900548001F016841F0D4
:100A700080510160006800F08050009008BD0000C7
:100A800044380240002809DB00F01F020121914098
:100A90004009800000F1E020C0F80011704700001C
:100AA000F0B40E4B1B680C46C3F30223C3F10705D9
:100AB000042D00D90425191D072901D2002300E0C7
:100AC000DB1E012606FA05F1491E214099409E4091
:100AD000761E16403143F0BC04F067BF0CED00E019
:100AE000064900F0070208684FF6FF03184040EA85
:100AF0000220034A10430860704700000CED00E03C
:100B00000000FA0570470068416200207047F0B5A8
:100B10000368586A39B19C6A4FF4827600EB14443A
:100B200000204D1E0AE040EA024098620FE006EB0A
:100B30008007DF59401C04EB1744C0B2A842F6D32B
:100B400044EA02404FF4807202EB810158500020C9
:100B5000F0BDD0F8040403F042BEC1EBC10200EBCB
:100B60008202D0F80404926C03F0ADBDC1EBC10267
:100B700000EB8202D0F80404D2F8082203F0F8BD9A
:100B8000D0F8040403F02DBE70B504460B0601F046
:100B90000F00C0EBC00104EB81014FF001024FF0E8
:100BA000000503D581F83D203C3103E081F8FD517B
:100BB00001F5FE71087094F8BC03012808D084F890
:100BC000BC23206804F088FA84F8BC53002070BD70
:100BD000022070BD70B5044601F00F0062689042BB
:100BE00001D9012070BD0B0601F00F01C1EBC1015D
:100BF00004EB81014FF001024FF0000503D581F8AD
:100C00003D203C3103E081F8FD5101F5FE718D700E
:100C1000087094F8BC03012808D084F8BC2320682D
:100C200004F054FC84F8BC53002070BD022070BD59
:100C300010B5044690F8BC0301280AD0012084F8BE
:100C4000BC03080607D501F00F01206804F0A0FDE1
:100C500004E0022010BD206804F08AFD002084F822
:100C6000BC0310BD01F00F01C1EBC10100EB81001D
:100C7000D0F8140270472DE9F04104460F0601F048
:100C80000F00C0EBC00104EB81014FF001064FF0F3
:100C9000000503D581F83D603C3103E081F8FD514A
:100CA00001F5FE7108708A60CB704A7802B1C88085
:100CB000022B00D10D7194F8BC03012809D084F8EF
:100CC000BC63206804F064F9284684F8BC53BDE88E
:100CD000F0810220FBE770B50C4601F00F05C5EB73
:100CE000C50100EB8101C1F81032C1F808220023D0
:100CF000C1F8143281F8FD3181F8FC51036901F526
:100D0000FE71012B00D10A612207027C006803D02A
:100D100004F034FC002070BD04F020FBFAE770B54D
:100D200004460D4601F00F006168884201D9012098
:100D300070BD29064FF000064FF0010207D5C0EB49
:100D4000C00104EB810181F83D203C3107E0C5EB97
:100D5000C50104EB810181F8FD6101F5FE718A7026
:100D6000087094F8BC03012807D084F8BC232068DD
:100D700004F0D8FB280702D007E0022070BD217CD8
:100D800004F57172206804F075FB84F8BC630020E0
:100D900070BD70B50C4601F00F05C5EBC50100EB49
:100DA00081010B658A6400234B65012381F83D3086
:100DB00001F83C5F0369012B00D10A612207027C24
:100DC000006803D004F0DAFB002070BD04F0C6FA1E
:100DD000FAE700002DE9FC5F05680446284604F0A8
:100DE000F6FC00287ED1206804F01DFD002879D093
:100DF000206804F018FD800704D52168486900F0D8
:100E000002004861206804F00EFDC10604F571700F
:100E1000009034D52068816921F0100181612F6A2A
:100E200007F00F00C0EBC00004EB8006C7F343409F
:100E300006F5FE76022802D0062811D01AE047F601
:100E4000F070074216D0C7F30A1217462846F16819
:100E500004F0EDFCF0683844F060B069384408E014
:100E600008222846009904F0E2FCB069C7F30A1191
:100E70000844B0612068816941F0100181612068F7
:100E800004F0D1FC00034FF0010A4FF0080B5BD5D2
:100E90000026206804F0A6FC0746DFF8689351E0BE
:100EA000F8074DD0F1B2206804F0B5FC8046C007C9
:100EB00007D005EB4611C1F808AB3146204601F0DA
:100EC00093FE5FEA087022D505EB4611C1F808BB16
:100ED0002068016C00EB46100191D0F8082B4945C1
:100EE00007D900E08BE1110403D54FF40041C0F8AD
:100EF000081B204600F076FA0198484507D920697A
:100F0000012804D120680121009A04F0B3FA5FEAB5
:100F1000C86004D505EB46111020C1F8080B5FEA44
:100F2000886004D505EB46112020C1F8080B5FEA64
:100F3000884005D505EB46104FF40051C0F8081B5A
:100F40007F08761C002FABD1206804F06CFC4003B6
:100F50004FF000095CD5206804F03DFC07460026F0
:100F600054E0F80750D0F1B2206804F042FC80460B
:100F7000C00723D006F00F020AFA02F0D5F8342891
:100F80008243C5F8342805EB4610C0F808A920694B
:100F900001280FD1C6EBC60004EB8000D0E9112177
:100FA0001144816436B9206D20B920680121009A6E
:100FB00004F060FAF1B22046FFF7CFFD5FEA087057
:100FC00003D505EB4611C1F808B95FEAC86004D53E
:100FD00005EB46111020C1F808095FEA486004D506
:100FE00005EB46114020C1F808095FEA887004D576
:100FF00005EB46110220C1F808095FEA086003D535
:101000003146204601F056FE7F08761C002FA8D1FD
:10101000206804F008FC002811DAD5F8040820F054
:101020000100C5F8040894F8F403012829D02046EB
:1010300000F0BCF92068416901F00041416120687D
:1010400004F0F1FB00050BD5D5F80808C00702D065
:10105000204600F0EFF92068416901F40061416128
:10106000206804F0E0FBC00468D5D5F8040820F03F
:101070000100C5F804081021206804F089FB002154
:1010800027E084F8F49300212046FFF73BFDD1E7E9
:1010900005EB41104FF67F32C0F80829D0F800392F
:1010A00023F40013C0F80039D0F8003943F000638E
:1010B000C0F80039C0F8082BD0F8002B22F4001239
:1010C000C0F8002BD0F8002B42F00062C0F8002BD3
:1010D000491C60688842DBD8D5F81C0840F0011034
:1010E000C5F81C08206B60B1D5F8840840F00B00EF
:1010F000C5F88408D5F8440840F00B00C5F844084A
:101100000CE0D5F8141842F22B000143C5F814186E
:10111000D5F8100840F00B00C5F81008D5F8000805
:1011200020F4FE60C5F80008217C2068009A04F0D5
:10113000A1F92068416901F480514161206804F0FF
:1011400072FB800415D5206803F062FF206804F06C
:1011500031FBE06000F020FA0146227B206804F0B9
:101160009DFB204600F00CF92068416901F4005114
:101170004161206804F057FB000707D5204600F0C6
:1011800019F92068416901F008014161206804F003
:101190004AFBC00208D50021204600F035F820683F
:1011A000416901F480114161206804F03CFB800238
:1011B00008D50021204600F02BF82068416901F491
:1011C00000114161206804F02EFB400007D5204645
:1011D000FFF7BFFC2068416901F080414161206850
:1011E00004F021FB40070AD520684568680702D54E
:1011F0002046FFF7C5FC2068416829434160BDE8EF
:10120000FC9F00000A30544FD0F8040403F042BBA6
:10121000D0F8040403F040BB2DE9F0418AB004008B
:1012200005D094F8BD032668002520B108E0012010
:101230000AB0BDE8F08184F8BC53204600F05EF8A7
:10124000032084F8BD03F06BC00500D4256120683D
:1012500004F07EF804F11001282288466846FEF763
:10126000E2FF94E80F0003F0E1FE0226C8BB002174
:10127000206804F0EAFA002001270EE0C0EBC0016C
:1012800004EB810181F83D7001F83C0FC880CD70FE
:101290008D60CD60401CC0B24D6161688142EDD867
:1012A000002011E0C0EBC00104EB810181F8FD5189
:1012B00081F8FC0181F8FF51C1F80452C1F80852CD
:1012C000401CC0B2C1F8105261688142EAD828229D
:1012D00041466846FEF7A7FF94E80F0003F07EFF43
:1012E00010B184F8BD63A2E784F8385084F8BD7368
:1012F000206803F065FF00209AE7000010B586B073
:10130000044614216846FEF7A7FF2068B0F1A04FFD
:101310002FD119480021026842F0010202600068E2
:1013200000F0010005904FF4C05000900220CDE97C
:101330000101032003900A20049069460F48FFF73B
:1013400065FA0D48001D016841F0800101600A48FE
:101350001430016841F4804101600068002200F40B
:101360008040059003214320FFF79AFB4320FFF7BD
:1013700089FB06B010BD000030380240000002407A
:1013800070B50446C068012570B1022801D0FFF78E
:1013900080F82946D4F8040403F0D4FAD4F80404FD
:1013A000BDE8704003F08FBA0025F2E7D0F80404DE
:1013B00003F0B2BAD0F8040403F0B8BA10B504468A
:1013C00090F8BC0301280BD0012084F8BC0384F8FA
:1013D0003810206804F050FA002084F8BC0310BDD7
:1013E000022010BDD0F8042400F57171104603F0FE
:1013F000B5BA10B50446006894F8BC13012906D0AC
:10140000012184F8BC13A16A012902D008E002205E
:1014100010BDA169012903D0816B41F48031816342
:10142000206804F09FF9206803F0BCFE002084F8D7
:10143000BC0310BD10B50446D0F8040403F0D0FA84
:101440002068D0F8001E41F00101C0F8001E206A9B
:10145000002804D00248016841F00601016010BD77
:1014600010ED00E02DE9F0470E46050065D0DFF8ED
:101470001481D8F80000F7B200F00F00B04207D294
:1014800088F80070D8F8000000F00F00B04254D186
:1014900028683D4C810712D5400703D5206840F4E9
:1014A000E05020602878000703D5206840F46040B1
:1014B00020602068A96820F0F000084320602878A8
:1014C000C0072DD0304968680839012812D0022899
:1014D00013D0032811D00968890700292DDA216863
:1014E00021F0030101432160FFF76CFA814641F2CC
:1014F000883A0EE009688903EFE709688901ECE79B
:10150000FFF760FAA0EB0901514502D90320BDE8BD
:10151000F0872068696800F00C00B0EB810FEFD114
:10152000D8F80010404601F00F01B14207D907700A
:10153000006800F00F00B04201D00120E7E72878F2
:10154000400705D52068E96820F4E0500843206092
:101550002878000706D52068296920F4604040EA11
:10156000C100206000F03EF82168084AC1F3031171
:10157000515CC8400649086006480068FFF74AFA0F
:101580000020C4E7003C024008380240085B000825
:10159000880000208000002001480068704700009B
:1015A000880000200448054900680968044AC1F31E
:1015B0008221515CC84070478800002008380240F2
:1015C000185B00080448054900680968044AC1F32B
:1015D0004231515CC8407047880000200838024002
:1015E000185B0008154810B5006810F00C0214488C
:1015F00013D04110042A0FD0082A0ED10F4C241FFB
:101600002268236802F03F025B0207D52068C0F31E
:101610008810A0FB010106E0084610BD2168C1F357
:101620008811A1FB00010023FEF7CCFD2168C1F366
:101630000141491C4900B0FBF1F010BD08380240DF
:101640000024F4002DE9F84F04006ED02078DFF874
:101650003C93C007A9F104054AD009F104000168D0
:10166000C1F38101012908D00068C0F3810002287C
:101670000AD1D9F80000400206D52868800337D582
:1016800060680028E1D033E06068B0F5803F10D09A
:10169000B0F5A02F286810D020F48030286028688A
:1016A00020F4802028606068A8B1FFF78BF9064617
:1016B0000DE0286840F48030F4E740F48020286092
:1016C000F7E700BFFFF77EF9801B642873D828680E
:1016D0008003F7D50CE0FFF775F9064605E000BF7B
:1016E000FFF770F9801B6428F0D828688003F7D4CE
:1016F0002078DFF89C8280074FF0000A3ED5A3488F
:10170000001D016811F00C0F08D00068C0F38100C3
:1017100002280BD1D9F80000400207D428688007BE
:1017200016D5E068012800D112E02BE1E068B8B1DD
:101730000120C8F80000FFF745F9064605E000BFA4
:10174000FFF740F9801B0228C0D828688007F7D52A
:101750002868216920F0F80040EAC10028600DE007
:10176000C8F800A0FFF72EF9064604E0FFF72AF9B3
:10177000801B02281FD828688007F7D4207800072C
:1017800022D5824E83486169703671B101210160B2
:10179000FFF718F9074604E0FFF714F9C01B022809
:1017A00009D830688007F7D50EE0C0F800A0FFF731
:1017B00009F9074605E082E0FFF704F9C01B02289B
:1017C0007DD830688007F7D42078400768D5DFF8E7
:1017D000BCB100270BF13C0BDBF80000C0000BD4C0
:1017E000DBF8001041F08051CBF80010DBF800006E
:1017F000012700F080500090674E3068C00510D47B
:10180000306840F480703060FFF7DCF8009005E04D
:10181000FFF7D8F80099401A022850D83068C00560
:10182000F6D55A4EA0686C3601280FD005283068CE
:1018300010D020F001003060306820F004003060EB
:10184000A068B8B1FFF7BEF800900FE0306840F034
:101850000100F4E740F004003060F7E7FFF7B2F86A
:101860000099411A41F28830814266D83068800779
:10187000F4D50EE0FFF7A6F8009007E0FFF7A2F816
:101880000099411A41F28830814256D83068800769
:10189000F4D42FB1DBF8001021F08051CBF8001008
:1018A000A069C8B33949091D0968C1F3810102293A
:1018B0004AD00228504607D0C8F8600000E03CE05B
:1018C000FFF780F804463BE04746C8F86000FFF7A2
:1018D00079F8064605E000BFFFF774F8801B022880
:1018E0002BD828688001F7D4D4E907010843A16AFE
:1018F0002A4A490802EB0141626A41EA821108431F
:1019000094F82C1040EA0161C9F8001001203866F3
:10191000FFF758F8044606E036E000BFFFF752F83C
:10192000001B022809D828688001F7D52CE000BFE9
:10193000FFF748F8001B022802D90320BDE8F88F02
:1019400028688001F4D41FE00128F7D0D9F80000FE
:10195000E26900F48001914214D1226A00F03F0153
:1019600091420FD147F6C071626A0140914209D19C
:10197000A26A00F44031914204D1E16A00F0706043
:10198000884201D00120D9E70020D7E7043802407F
:1019900000004742800E4742007000400000FFFFF9
:1019A00010B5FEF7C0FC10BD2DE9FE430446032030
:1019B0000F4684F83400606C03285AD0B7F5805F76
:1019C00057D04FF4006600254FF08068B7421CD115
:1019D000009501950021206801F023FE800121D4AB
:1019E0006946204602F0F8F998BB0198400332D5C9
:1019F000B4F850000104206801F04EFE48BB0221FB
:101A0000206822E0A06B284327E01FB1A06B40F0C4
:101A1000006022E0009501950021206801F001FEA0
:101A2000800101D53546EDE76946204602F0D4F93C
:101A300078B90198C0030ED5B4F8500001042068AD
:101A400001F02AFE28B90021206801F072FE00286A
:101A5000D8D00546D6E74546D4E7A063A06B01255C
:101A600058B121680C48886384F834500120BDE8DF
:101A7000FE83A06B40F08050EFE7211DD4E90506FE
:101A80000EC90097CDE90106206801F0D3FD84F866
:101A900034500020EBE70000FF05400070470000D5
:101AA000F0B5426E920F0A70426EC2F383624A70C2
:101AB000426EC2F301628A70426E120CCA70B0F8B4
:101AC0006420120A0A7190F864204A71826E120D25
:101AD000CA80826EC2F303420A72B0F86820C2F371
:101AE000C0324A72B0F86820C2F380328A72B0F80D
:101AF0006820C2F34032CA72B0F86820C2F30032E4
:101B00000A7300264E73426C4FF40075012462B1D3
:101B1000012A3AD0026847499163816B41F08051B4
:101B2000816380F834400120F0BDB0F86820C36EB6
:101B30009205120D42EA93720A61C26EC2F3C2624A
:101B40000A75C26EC2F302624A75C26EC2F3425295
:101B50008A75C26EC2F38242CA75C26EC2F3C232C5
:101B60000A760A69521C42650B7E03F007039B1C30
:101B70009A4042650B7A03F00F0704FA07F3836576
:101B80005B0A5A43C0E917250EE090F86820C36E3F
:101B90009206920A42EA13420A610A69521C9202B0
:101BA0004265C0E91652056630F86C2FC2F38032E8
:101BB00001F8192F0288C2F3C6124A70027802F0A7
:101BC0007F028A704268D20FCA704268C2F34172C3
:101BD0000A714268C2F382624A714268C2F3835258
:101BE0008A714268C2F34052CA710E724268C2F3EF
:101BF00000424A728288C2F3C0328A728288C2F37B
:101C00008032CA728288C2F340320A738288C2F379
:101C100000324A738288C2F381228A738288C2F3B7
:101C20000122CA730079C0F3460008744C74002086
:101C3000F0BD0000FF054000426C0A60826C4A6003
:101C4000C26C8A60026DCA60426D0A61826D4A612F
:101C5000C26D8A61006EC8610020704770B504468D
:101C6000B0F8500000250104206801F06CFE18B1A6
:101C7000A16B0143A16304E00021206801F0D1FCC5
:101C80000546C5F3432070BD90F83400704700004E
:101C9000F8B5056B04460068416B09041BD529079C
:101CA00019D5D4E90A56002E14D00027206801F077
:101CB000DBFC05F8010B010A05F8011B010C05F816
:101CC000021B000E361F7F1C05F8010C082FEDD3F8
:101CD000C4E90A56F8BD416B4FF00006C9054FF044
:101CE000010744D5390281632068C16B4CF23A3256
:101CF0009143C1632068C16A21F00101C1622807D4
:101D00001DD515F0220F09D0206801F04DFE28B135
:101D1000A16B0143A1632046FFF7C0FE216840F29A
:101D20003A50886384F834702663A80703D02046AD
:101D300000F02EFBF8BD204600F02EFBF8BD280673
:101D4000FCD5A80609D5206801F02EFE28B1A16BAC
:101D50000143A1632046FFF7A1FEA807EED120684A
:101D6000C16A21F00801C16284F83470E3E7416B75
:101D7000490424D5290722D5D4E90856002EDDD000
:101D80005FF0000715F8010B009015F8011B361FD6
:101D900040EA0120009015F8021B40EA0140009043
:101DA00015F8011C40EA016000906946206801F0C6
:101DB0006EFC7F1C082FE5D3C4E90856F8BD416BC3
:101DC00040F23A221142F9D0416B890703D5A16B49
:101DD00041F00201A163416B090703D5A16B41F0FA
:101DE0000801A163416B890603D5A16B41F0200175
:101DF000A163416BC90603D5A16B41F01001A1633A
:101E0000416B890503D5A16B41F00801A16340F244
:101E10003A7181632068C16B40F23A329143C163E9
:101E2000206801F0C1FDA16B0843A063280706D517
:101E300084F8347026632046FFF730FEF8BD28068C
:101E4000FCD515F0300F0CD0E16B11480865E06B44
:101E5000FEF744FB0028F1D0E06BBDE8F84001F04C
:101E600099BFA8070CD0216C0A480865206CFEF7C2
:101E700035FB0028E2D0206CBDE8F84001F061BFDE
:101E8000A66384F8347026632046FFF789FDF8BD09
:101E9000953D0008433D000870B504000ED094F84D
:101EA0003400002518B92577204600F03BF80320C0
:101EB00084F83400204600F00BF808B1012070BD12
:101EC000A5632563012084F83400002070BD000064
:101ED000FEB50025044676200095CDE9015029463F
:101EE0000B460A46206801F0A5FB08B10120FEBDA3
:101EF0000B4E46F8A05F206801F0AEFB012535606F
:101F0000204602F04BF820B9204601F0CFFF002810
:101F1000EDD084F83450A16B0143A163E6E70000E3
:101F2000008025422DE9F04F87B005461421684610
:101F3000FEF792F94649286888427DD145480068F5
:101F4000444940F400600860086800F400600590AF
:101F50004048143800683F4940F0040014390860D4
:101F6000086800F004000590086840F00800086068
:101F70000868022400F0080005904FF4F850CDE9FD
:101F8000000402AA002003264FF00C0882E8410159
:101F900069463148FEF73AFC02AA002082E8410176
:101FA0000427CDE9007469462C48FEF72FFC2D4C20
:101FB0002B484FF00068C4E900084020A0600020D2
:101FC0004FF48069C4E90309B8024FF4804BC4E9B7
:101FD000050BC4E909764FF0200A0020C4E907A0E8
:101FE0007E05B7102046C4E90B67FEF75BFB08B11E
:101FF000FEF74FFAEC63A5631A4C19486034483079
:10200000C4E900080020A060C4E90309C4E907A0EE
:102010000420606204F12802032082E8C1004FF42A
:102020008051C4E9051B2046FEF73CFB08B1FEF7D2
:1020300030FA2C64002200E007E001213120A56382
:10204000FEF72EFD3120FEF71DFD07B0BDE8F08F35
:10205000002C01404438024000080240000C0240BD
:1020600058640240000200202DE9F04F87B09B46E3
:1020700016460D460446FEF7A5FC00903DB194F8C7
:102080003400012807D0A06B40F000500DE0A06B99
:1020900040F0006009E00027A763E16D06EB0B004C
:1020A000884204D9A06B40F00070A06395E0032043
:1020B00084F834002068C762606C012800D0760282
:1020C0004FF40071206801F01BFBDFF890A10121A3
:1020D00040B12368C3F838A0A26B0243A26384F81E
:1020E00034107AE04FF0FF3001904FEA4B2002901D
:1020F000902003900220CDE9040706918846B94656
:1021000001A9206801F077FABBF1010F06D902207E
:1021100020633146206801F087FB05E0C4F8308079
:102120003146206801F099FB30B12268C2F838A02E
:10213000A16B0143A1634CE0029E1EE0406B0004D2
:1021400013D596B10027206801F08EFA05F8010B2F
:10215000010A05F8011B010C05F8021B000E361FD1
:102160007F1C05F8010C082FEDD3FEF72BFC00991E
:10217000411A109881421DD2E0B12068426B40F2B2
:102180002A310A42DAD0416BC90509D5BBF1010FEA
:1021900006D9616C032903D001F006FC0028C4D1E4
:1021A0002068416B09071AD5C0F838A0A06B40F031
:1021B000080051E02168C1F838A0A06B40F0004051
:1021C000A06384F83480C4F83090032007B0BDE8E1
:1021D000F08F84F83480C4F830900120F6E7416B2A
:1021E000890705D5C0F838A0A06B40F0020033E0A5
:1021F000416B89061CD5C0F838A0A06B40F02000C8
:102200002AE000BF01F030FA05F8010B010A05F8D9
:10221000011B010C05F8021B000E05F8010C361F0E
:10222000FEF7D0FB0099411A109881420ED268B196
:102230002068416B890201D5002EE3D1216840F26C
:102240003A50886384F834800020BFE72168C1F8E1
:1022500038A0A06B40F00040A063BAE7FF05400043
:102260002DE9F04786B01F460446154639B194F86B
:102270003400012807D0022006B0BDE8F087A06B2B
:1022800040F0006008E00020A063E36DEA199A4284
:1022900004D9A06B40F00070A0636FE0032284F8C3
:1022A000342022688246D0622268D36B40F22A36FC
:1022B0003343D363236C324A4FEA4729DA63236CF2
:1022C000304ADA64226C4FEA9903106520680A46A6
:1022D000266C00F180013046FEF74EFADFF8A88048
:1022E000012660B12068C16B21F49571C16321683A
:1022F000C1F83880A06B40F08040A06311E0234813
:102300000660606C012800D06D024FF400712068F7
:1023100001F0F6F940B12268C2F83880A16B0143A0
:10232000A16384F8346029E04FF0FF30CDE9000963
:102330009020029002200596CDE9030AD146694615
:10234000206801F058F9012F06D982202063294620
:10235000206801F069FA05E08120206329462068A1
:1023600001F07BFA002887D02268C2F83880A16B80
:102370000143A16384F83460C4F8309001207BE706
:10238000013D00089D3C0008FF0540008C8525426A
:1023900010B5FEF70BF810BD10B5FEF719F810BD1B
:1023A0002DE9FF4F8DB016460D460446FEF70AFB99
:1023B0000B903DB194F83400012807D0A06B40F099
:1023C00000500DE0A06B40F0006009E00027A7631B
:1023D0001098E16D3044884204D9A06B40F0007041
:1023E000A0638BE0032084F834002068C762606C2F
:1023F000012800D076024FF40071206801F080F9C6
:10240000DFF864B1012140B12368C3F838B0A26B92
:102410000243A26384F8341070E04FF0FF30039061
:1024200010988946400204909020CDE90507CDE937
:102430000771BA4603A9206801F0DDF81098012859
:1024400006D9202020633146206801F0C7FA05E054
:10245000102020633146206801F0D9FA5FEA0008B5
:1024600006D02168C1F838B0A06B40EA080071E0DE
:10247000049E27E0406B40041CD5DEB15FF00007EE
:1024800015F8010B009015F8011B361F40EA0120DA
:10249000009015F8021B40EA0140009015F8011C5D
:1024A00040EA016000906946206801F0F0F87F1C66
:1024B000082FE5D3FEF786FA0B99411A1A98814244
:1024C00020D2F8B12068416B40F21A321142D1D0CB
:1024D000416BC90523D51099012920D9616C0329C5
:1024E0001DD001F061FAD0B12268C2F838B0A16BFA
:1024F0000143A16384F83490C4F830A0012011B0E6
:10250000BDE8F08F2168C1F838B0A06B40EA080040
:10251000A06384F83490C4F830A00320EFE720686B
:10252000416B090705D5C0F838B0A06B40F0080032
:1025300010E0416B890705D5C0F838B0A06B40F0BA
:10254000020007E0416BC90606D5C0F838B0A06BA1
:1025500040F01000A063CDE740F23A51816384F867
:1025600034900020CBE70000FF0540002DE9FF4F2D
:1025700087B0044608981F46164638B194F83400D0
:10258000012807D002200BB0BDE8F08FA06B40F00F
:10259000006008E00025A563E16DF019884204D9C8
:1025A000A06B40F00070A06361E0032084F8340069
:1025B0002068C5622068C16B40F21A2A41EA0A010C
:1025C000C163E16B3248C863E16B3248C864E06BB9
:1025D0000565606C012800D076024FF40071206818
:1025E00001F08EF8DFF8B0904FF0010840B122689A
:1025F000C2F83890A16B0143A16384F8348036E0BF
:102600004FF0900B012F06D9A0202063314620689F
:1026100001F0E4F905E0C4F830B03146206801F07B
:10262000F6F940B12268C2F83890A16B0143A1636A
:1026300084F834801AE019484646C0F800802268C1
:102640007F02BB08E06B80320899FEF795F880B1F5
:102650002068C16B21EA0A01C1632168C1F8389082
:10266000A06B40F08040A06384F8346025630120B3
:1026700089E74FF0FF30CDE90007CDE902B5CDE99C
:1026800004566946206800F0B6FF00207BE7000092
:10269000873D00089D3C0008FF0540008C852542D1
:1026A00010B5401EB0F1807F01D3012010BD4FF066
:1026B000E02460610F21601703F077F90020A0612A
:1026C00007202061002010BD70B5040004D094F8EC
:1026D0003900002510B106E0012070BD84F83850A3
:1026E000204600F023F8242084F839002068C168CF
:1026F00021F40051C160204601F0CAFD2068016943
:1027000021F4904101612068416921F02A01416171
:102710002068C16841F40051C160E563202084F85D
:10272000390084F83A00002070BD0000F0B587B091
:10273000044614216846FDF78FFD1D492068884234
:1027400033D11C480024016841F010010160006889
:1027500000F01000059017481438016841F001019D
:102760000160016801F001010591016841F0020179
:1027700001600068022500F0020005904FF400702F
:10278000CDE9000502AA0326072782E8D0006946A2
:102790000948FEF73BF88020CDE9000502AA69460A
:1027A00082E8D0000548FEF731F807B0F0BD000020
:1027B0000010014044380240000002400004024082
:1027C000FEE70000F0B500230A24302537261F4617
:1027D00011E000BFB4EB107F02D905EB107C01E0E3
:1027E00006EB107C01F813C001EB430C00015B1CED
:1027F0008CF80170DBB29342ECD3F0BD70B5D0F829
:10280000BC42054694F81C0240B9D4F8180228B11D
:10281000607A18B90121284602F0D0F881212846B3
:1028200002F0CCF8607A022809D18121284602F012
:10283000C5F82846BDE87040012102F0BFB870BD60
:1028400070B5D0F8BC4205460121D4F81402C4F892
:102850003402D4F81802C4F83802284601F0D6FF32
:102860001F280DD12849D4F81002884208D194F8C5
:102870001D12012904D894F81E0208B1102809D9A4
:1028800094F81D1220230522284600F0BAFD0220EC
:10289000607209E004F21F22284600F0A9FA00281D
:1028A000207A08DA052804D02846BDE87040FFF7F2
:1028B000A5BF012121E0022824D0012822D003282D
:1028C00020D0E668C6B1D5F8BC12284604F1100243
:1028D000D1F81832B34200D33346D1F83842A41BA2
:1028E000C1F83842002481F83C4204240C72BDE84F
:1028F0007040812102F07DB800212846BDE870407B
:1029000000F09CB870BD00005553424310B504461A
:10291000D0F8BC02407A022809D0090611D5012856
:102920000FD02046BDE81040012100F087B881217A
:10293000204602F043F82046BDE81040012102F095
:102940003DB810BD10B5D0F8BC220446107A02285C
:1029500005D0032801D0042810D1002109E092F805
:102960001D12204602F21F2200F042FA002805DA6A
:1029700001212046BDE8104000F060B810BD10B540
:10298000D0F8BC220446107A80B1012813D192F805
:102990001D12204602F21F2200F02AFA00280ADA4D
:1029A0002046BDE81040012100F048B82046BDE8AF
:1029B0001040FFF745BF10BDD0F8BC0200210172E6
:1029C000704770B5D0F8BC42002105462172617293
:1029D00084F8611284F8601284F86212D0F8C002A0
:1029E0000168002088470121284601F006FF812167
:1029F000284601F002FF04F504722846BDE8704045
:102A00001F23012101F056BF70B5D0F8BC42054626
:102A100000202072012060728121284601F041FED1
:102A20000121284601F03DFE04F504722846BDE868
:102A300070401F23012101F03DBF000070B5D0F8A8
:102A4000BC4205460B48C4F8300284F83C12002012
:102A500020720D2304F50C728121284601F0C9FF74
:102A600004F504722846BDE870401F23012101F0DF
:102A700021BF0000555342530D4808B5016841F489
:102A8000800101600068002200F4800000900221B3
:102A90003B20FEF705F83B20FDF7F4FF0022022162
:102AA0004520FDF7FDFFBDE808404520FDF7EABFE2
:102AB0003038024010B504490448FDF7EBFC0249E8
:102AC000491E087010BD000002000020C85A00080E
:102AD000154808B5016841F004010160016801F082
:102AE00004010091016841F080010160016801F07A
:102AF00080010091016841F001010160016801F06D
:102B000001010091016841F008010160016801F0D4
:102B100008010091016841F002010160006800F0C5
:102B20000200009008BD0000303802400648054908
:102B30000160002141608160C16001614161022149
:102B400081617047002C01407C0100200C4810B5C9
:102B50000A4901604FF4E1314160002181600C229B
:102B6000C160C0E904128161C161FFF7ADFD0028B9
:102B700003D0BDE81040FDF78CBC10BD0010014033
:102B8000C002002010B500220F49104801F06FFD6F
:102B900008B1FDF77EFC0E490C4802F023F808B19D
:102BA000FDF777FC0B49094801F099FF08B1FDF7E3
:102BB00070FC064802F090F8002803D0BDE81040F1
:102BC000FDF767BC10BD00000800002000030020D6
:102BD0009000002058000020FEE770470148FEF7F3
:102BE000F9B80000D00700202DE9F04103680D4638
:102BF00004461E6C03EB4511D1F8080BD4F810E025
:102C00004FF400474FF0200C04F57172BEF1010F34
:102C100009D0DFF898E0764539D1020432D500BFFB
:102C2000C1F8087B3FE0224B5FEA007E04D59E425C
:102C300039D90004F4D436E05FEA806E02D5C1F8D9
:102C400008CB30E010F0280F2DD19E4201D90004AE
:102C5000E6D4C5EBC50004EB8000D1F8101BD0F81A
:102C60000432C1F31201591AC0F81412D0F8081234
:102C70001944C0F8081295B9D4F8100278B90121A6
:102C800020680AE080060AD5C1F808CB07E035B90C
:102C9000D4F8100218B90021184602F0EBFBE9B293
:102CA0002046FDF763FF0020BDE8F0810A31544F54
:102CB0000A30544F2DE9F84F0E46C1EBC60100EB28
:102CC000810481460568D4E914103C34884202D955
:102CD0000120BDE8F88F081AA168814200D2084699
:102CE000C01C870805EB46181BE000BFA0EB010ADB
:102CF000A068504500D282460AF10300870899F87F
:102D0000100000901FFA8AF3F2B22846E16802F040
:102D100039FEE16801EB0A00E060A16901EB0A00FD
:102D2000A061D8F8180980B2B84205D3D4E90501EA
:102D3000814201D20028D9D1D4E90501884208D8BE
:102D400006F00F0101208840D5F834188143C5F8FA
:102D500034180020BDE7704710B5D0F8BC421A44C3
:102D6000D4F868329A4206D92123052200F049FBA3
:102D70004FF0FF3010BD002010BD000070B50446BC
:102D8000D0F8BC0213464FF0FF35D0F818227AB1C4
:102D90005A78D20716D0997871B180290FD090F85F
:102DA0001D1224230522204600F02BFB284670BD6F
:102DB00090F81D122023F5E706220B490FE00822A8
:102DC0000A490CE0D4F8C02201EBC1011B79D26999
:102DD00002EB81010A79521D934200D81A4600F095
:102DE00030FB002070BD00003201002038010020BF
:102DF0002DE9F04713780025D0F8BC424FF0FF369C
:102E00004FF00208252B72D00FDC1A2B74D005DC92
:102E100013B3032B45D0122B17D146E01B2B48D000
:102E20001E2B5ED0232B10D180E05A2B6DD006DCF8
:102E3000282B76D02A2B75D02F2B06D192E09E2BF3
:102E40007CD0A82B70D0AA2B6FD02023052200F0B5
:102E5000D8FA84F809801EE00746D4F8180288469C
:102E600028B1202394F81D12052238467FE094F8FB
:102E700062024FF00509022810D0D7F8C00281681D
:102E80004046884740B33A2302224146384600F084
:102E9000B8FA84F808903046BDE8F0873A23022259
:102EA000F4E7BDE8F04700F06FBABDE8F047FFF780
:102EB00065BF94F86232012B04D1137903F0030348
:102EC000022B52D0117901F00300012811D0022801
:102ED00004D0C84380070CD0E56020E084F862820B
:102EE000FAE7107928B1012084F86202F4E721E0C2
:102EF00002E084F86252EFE7127917212046172A80
:102F000000D811460A46204907E0117A1B232046C3
:102F10001B2900D80B461A461C4900F092FA284695
:102F2000BAE70FE016E009E010E017E0BDE8F0476F
:102F300000F0F3B9BDE8F04700F075B9BDE8F0471F
:102F400000F0A0B9BDE8F04700F0BEB8BDE8F0471A
:102F500000F00FB9BDE8F04700F07FBABDE8F047D8
:102F600000F0DEBA5278920704D52423052200F03F
:102F700048FA90E7D4E99B23FFF7EEFE00288ADBAE
:102F80002846E56088E70000400100205701002046
:102F90002DE9F041D0F8BC4206460F46B4F8640271
:102FA000D4F870524FF4007145438D4200D30D4662
:102FB000B5FBF0F083B2D6F8C00204F11001D4F8EA
:102FC0006C22D0F810C088463846E047002809DA5D
:102FD000112304223946304600F013FA4FF0FF3037
:102FE000BDE8F0812B4642468121304601F001FDCB
:102FF000B4F86402D4F86C22B5FBF0F1B5FBF0F044
:103000001144C4F86C12D4F87012081AC4F8700293
:10301000D4F83812A1EB0501C4F8381201D103200D
:1030200020720020DCE72DE9F047D0F8BC420746CB
:103030004FF40075B4F86402D4F8706288464643D1
:10304000AE4200D32E46B6FBF0F083B2D7F8C002F2
:1030500004F11001D4F86C22D0F814C0894640461F
:10306000E047002809DA032304224146384600F0ED
:10307000C8F94FF0FF30BDE8F087B4F86402D4F827
:103080006C22B6FBF0F11144C4F86C12B6FBF0F1FF
:10309000D4F87022531AC4F87032D4F83812A1EB65
:1030A0000601C4F838120AD04343AB4200D32B4682
:1030B0004A460121384601F0FDFB0020DBE70021F4
:1030C0003846FFF7BBFCF8E72DE9F041D0F8BC42E9
:1030D00006461546207A884688BB94F81C024FF0B5
:1030E000FF37000635D594F86202022809D0D6F8D9
:1030F000C00281684046884748B13A2302224146CF
:1031000001E03A230222304600F07BF914E068889F
:10311000297940BA000440EA012268794146024315
:10312000C4F86C22B5F8070043BA3046C4F87032D0
:10313000FFF712FE002803DA3846BDE8F0810FE001
:10314000B4F86412D4F870024843D4F818128842D4
:1031500004D0202394F81D120522D4E70220207207
:103160004FF40070E06041463046BDE8F041FFF7A3
:103170000FBF2DE9F041D0F8BC4206461546207A33
:103180008846B0BB94F81C024FF0FF3700063AD5D2
:1031900094F86202022809D0D6F8C002816840463D
:1031A000884748B13A230222414601E03A230222ED
:1031B000304600F026F919E06888297940BA000401
:1031C00040EA012268790243C4F86C22E888297A2F
:1031D00040BA000440EA0123687A4146034330467E
:1031E000C4F87032FFF7B8FD002803DA3846BDE8AE
:1031F000F0810FE0B4F86412D4F870024843D4F8B8
:103200001812884204D0202394F81D120522CFE71B
:10321000022020724FF40070E06041463046BDE865
:10322000F041FFF7B5BE70B505460E46D5E9AF4093
:1032300004F519724368111D30469847C8B994F8CF
:103240006202022815D0D4F86802401E010E2174D3
:10325000010C6174010AA174E0740020207560758E
:10326000B4F86402010AA175E0750820E06000204E
:1032700070BD3A2302223146284600F0C2F84FF0D2
:10328000FF3070BD2DE9F04106461546D6E9AF4046
:103290000F4604F519724368111D3846984778B9EE
:1032A00094F8620202280BD06889297B40BA000496
:1032B00040EA0120697B0843E060002001460DE000
:1032C0003A2302223946304600F09BF84FF0FF3097
:1032D000BDE8F0812218401C1174C0B2E26882423D
:1032E000F8D8D4F86802401E020E2275020C6275EE
:1032F000020AA275E07521766176B4F86402010ACB
:10330000A176E0766889297B40BA000440EA012072
:10331000697B0843E0600020DAE77CB505460E468D
:10332000D5E9AF406A46436801A93046984710BBCB
:1033300094F8620202281ED0002001462218401C88
:1033400080B211740C28F9D30820E0740198401E53
:10335000020E2275020C6275020AA275E075022047
:1033600020766176BDF80000010AA176E0760C2097
:10337000E06000207CBD3A2302223146284600F05E
:1033800040F84FF0FF307CBD30B5D0F8BC12D1F81A
:1033900018321BB3002004460B18401CC0B21C742A
:1033A0001228F9D3702008740C20C87591F86002B7
:1033B00091F8613298421CD001EBC003401C93F895
:1033C00040528D7493F844520D7793F84532C0B251
:1033D0004B7781F86002042809D00AE091F81D12A9
:1033E0002023052200F00DF84FF0FF3030BD81F8AA
:1033F00060421220C8601079122800D8C8600020EE
:1034000030BDD0F8BC0290F8611200EBC10181F828
:10341000402290F8611200EBC10181F8443290F82B
:103420006122002100EBC20282F8451290F861226D
:10343000521CD2B280F86122042A01D180F86112B4
:10344000704710B5C26004E0521E92B284188B5CC3
:103450002374002AF8D1002010BD2DE9F041D0F8E6
:10346000BC4206461546207A884620B13046BDE863
:10347000F041FFF7D8BDD4F818024FF0FF3788B3FA
:1034800094F81C02000637D4D6F8C0028168404682
:10349000884728B13A230AE03046FFF7B2FF1EE022
:1034A000D6F8C002C1684046884718B127230222D7
:1034B0004146F1E76888297940BA000440EA0122D0
:1034C000687941460243C4F86C22B5F8070043BA54
:1034D0003046C4F87032FFF73FFC002803DA384664
:1034E000BDE8F08108E0B4F86402D4F870324343D8
:1034F000D4F81802984204D0202394F81D12052213
:10350000CAE74FF40070834200D3034601202072C3
:10351000014604F11002304601F0CCF90020DFE74B
:103520002DE9F047D0F8BC4206461546207A894678
:1035300020B13046BDE8F047FFF775BDD4F818025A
:103540004FF0FF3818B194F81C02000607D594F824
:103550001D12202305223046FFF753FF30E0D6F836
:10356000C002816848468847052708B13A2306E02B
:10357000D6F8C002C1684846884738B127230222DE
:1035800049463046FFF73DFF277219E068882979E0
:1035900040BA000440EA012268790243C4F86C2270
:1035A000E888297A40BA000440EA0123687A49464B
:1035B00003433046C4F87032FFF7CEFB002802DA2E
:1035C0004046BDE8F087B4F86402D4F87032434353
:1035D000D4F818029842BAD14FF40070834200D355
:1035E000034601202072014604F11002304601F02A
:1035F00061F90020E5E70A6842624A688262D1E91F
:1036000002231A43D1E904310B43C16A1A4321F062
:10361000F7011143C16200207047006800F0030009
:1036200070470844406970470148FEF731BB00000D
:103630007C01002070B50DF1100C11439CE8700066
:103640002343194329434268314347F6FF639A43B2
:103650000A434260002070BD10B5032101600220C2
:10366000FDF7C2F8002010BDD0F8800070470A684E
:103670008260D1E901231A43D1E903310B43C168C8
:103680001A436FF30B011143C160002070470968B2
:10369000C0F880100020704710B586B0044637206F
:1036A000CDE9001040200290002003904FF480608C
:1036B000049069462046FFF7DAFF41F2883237214D
:1036C000204600F0BDF906B010BD000010B504465C
:1036D0000A4886B001432920CDE90010402002901D
:1036E000002003904FF48060049069462046FFF765
:1036F000BEFF204600F05CFA06B010BD000010804E
:1037000010B586B004461020CDE90010402002908C
:10371000002003904FF48060049069462046FFF734
:10372000A6FF41F288321021204600F089F906B048
:1037300010BD10B586B004460620CDE9001040202B
:103740000290002003904FF4806004906946204668
:10375000FFF78DFF41F288320621204600F070F914
:1037600006B010BD30B585B0002405460094019424
:103770004FF480600294CDE9034069462846FFF784
:1037800076FF0B484FF4FA510068B0FBF1F041F2BC
:1037900088314843401E03D24FF0004005B030BD91
:1037A000696B0906F6D5C520A8632046F6E7000038
:1037B0008800002070B585B004464FF4D5700090A5
:1037C00001A908204025002681E86100C00104907D
:1037D00069462046FFF74BFF12484FF4FA51006844
:1037E000B0FBF1F041F288314843401E03D24FF064
:1037F000004005B070BD616B11F0450FF5D00905B3
:10380000F3D4606B400701D5042003E0606BC00770
:1038100002D00120A063ECE7606B400600D5A563F1
:103820003046E6E78800002010B586B00446122036
:10383000CDE9001040200290002003904FF48060FA
:10384000049069462046FFF712FF41F288321221A8
:10385000204600F0F5F806B010BD10B586B004465D
:103860001120CDE9001040200290002003904FF479
:103870008060049069462046FFF7F9FE41F28832E5
:103880001121204600F0DCF806B010BD10B586B05E
:1038900004460720CDE9002040200290002003903C
:1038A0004FF48060049069462046FFF7E0FE41F245
:1038B00088320721204600F0C3F806B010BD10B5CD
:1038C00086B0044600210220CDE90010C020CDE9D9
:1038D00002014FF48060049069462046FFF7C7FE5E
:1038E000204600F03DF906B010BD10B586B0044684
:1038F0000920CDE90010C0200290002003904FF471
:103900008060049069462046FFF7B1FE204600F033
:1039100027F906B010BD10B586B00446002133204B
:10392000CDE900104020CDE9020100010490694674
:103930002046FFF79CFE41F288323321204600F0FA
:103940007FF806B010BD10B586B004460D20CDE955
:10395000001040200290002003904FF480600490FB
:1039600069462046FFF783FE41F288320D2120464A
:1039700000F066F806B010BD30B585B00C460546BF
:1039800000210320CDE900104020CDE90201000113
:10399000049069462846FFF76AFE2246032128461E
:1039A00000F028F905B030BD10B586B004460021FE
:1039B0000C20CDE900104020CDE902010001049067
:1039C00069462046FFF753FE034A0C21204600F0CB
:1039D00037F806B010BD000000E1F50510B586B05F
:1039E00004461920CDE900104020029000200390E9
:1039F0004FF48060049069462046FFF738FE41F29C
:103A000088321921204600F01BF806B010BD10B511
:103A100086B004461820CDE9001040200290002016
:103A200003904FF48060049069462046FFF71FFE24
:103A300041F288321821204600F002F806B010BD8D
:103A4000454B10B51B684FF4FA54B3FBF4F35343E2
:103A50005B1E02D24FF0004010BD426B12F0450FCA
:103A6000F6D01205F4D4426B520703D504218163CA
:103A7000084610BD426BD20702D00121816305E0E8
:103A8000C52282630269D2B28A4201D0012010BDF0
:103A90000021FFF7C6FD3149084201D1002010BDC9
:103AA000002802DA4FF0007010BD410001D540201F
:103AB00010BD810001D5802010BDC10002D54FF49A
:103AC000807010BD010102D54FF4007010BD41019E
:103AD00002D54FF4806010BDC10102D54FF40060E3
:103AE00010BD010202D54FF4805010BD410202D535
:103AF0004FF4005010BD810202D54FF4804010BD3C
:103B0000C10202D54FF4004010BD410302D54FF46D
:103B1000003010BD810302D54FF4802010BDC103D9
:103B200002D54FF4002010BD010402D54FF48010DF
:103B300010BD410402D54FF4001010BD810402D520
:103B40004FF4800010BD000702D54FF4000010BDF7
:103B50004FF4803010BD00008800002008E0FFFD19
:103B600012494FF4FA520968B1FBF2F141F288327E
:103B70005143491E02D24FF000407047426B12F091
:103B8000450FF6D01205F4D4416B490703D5042143
:103B9000816308467047416BC90703D001218163E7
:103BA00008467047C52181630020704788000020C7
:103BB0000F494FF4FA520968B1FBF2F141F2883231
:103BC0005143491E02D24FF000407047426B12F041
:103BD000450FF6D01205F4D4416B490703D50421F3
:103BE000816308467047C52181630020704700004B
:103BF0008800002030B5204B4FF4FA541B68B3FB0B
:103C0000F4F341F2883463435B1E02D24FF000406C
:103C100030BD446B14F0450FF6D02405F4D4436B4B
:103C20005B0703D504218163084630BD436BDB0786
:103C300002D00121816303E00369DBB28B4201D032
:103C4000012030BDC52181630021FFF7EAFC10F49B
:103C5000604F04D0410406D54FF4005030BD000C35
:103C60001080002030BD000402D54FF4805030BDDC
:103C70004FF4803030BD00008800002010B5064CA5
:103C800001202070FCF756FB18B9207820F00100C5
:103C90002070207810BD00000000002010B5846B5B
:103CA000FCF72EFC022828D0206C416DE06B406DA3
:103CB000012901D001281DD121681048886320689E
:103CC000C16B21F49D71C163A06B40F08040A06383
:103CD0002046FDF7C3FF062801D0052805D120683E
:103CE000FFF762FEA16B0843A063012084F8340053
:103CF000002020632046FDF7D1FE10BDFF054000E7
:103D000010B5846B206B822809D12068FFF74CFE28
:103D100028B1A16B0143A1632046FDF7BFFE2068D7
:103D2000C16A21F00801C162216840F23A508863FB
:103D3000012084F83400002020632046FEF728FB91
:103D400010BD10B5846B40F23A502168886320465C
:103D5000FDF784FF012184F8341000212163062837
:103D600001D0052805D12068FFF71EFEA16B08438E
:103D7000A063A06B0028204602D0FDF78FFE10BD87
:103D8000FDF70EFE10BD806B0068C16B41F48071C1
:103D9000C163704710B5846B40F23A502168886364
:103DA0002046FDF75BFF012184F8341000212163D8
:103DB000062801D0052805D12068FFF7F5FDA16B85
:103DC0000843A063A06B0028204602D0FDF766FEE2
:103DD00010BDFDF7E5FD10BD2DE9F04F89B00D4692
:103DE0000446FCF7EFFD0026834600960196374611
:103DF00008212068FFF784FC002834D1B4F8500073
:103E000001042068FFF748FC00282CD1401E4FF029
:103E10000808CDE9020830204FF00209CDE9040975
:103E20000120CDE9067002A92068FFF7E4FB2068B5
:103E3000FFF771FD002816D1EA4640F22A472068B4
:103E4000416B394212D1416B890204D5FFF70CFC5A
:103E50004AF82600761CFCF7B5FDA0EB0B00401CD1
:103E6000EDD14FF0004009B0BDE8F08F416B09077C
:103E700003D5C0F838800820F5E7416B890703D5E2
:103E8000C0F838900220EEE7416B890603D5202167
:103E900081630846E7E740F23A518163019800BA2E
:103EA0002860009800BA68600020DCE710B590B088
:103EB00004460120ADF838002068FFF7AEFB00286B
:103EC00054D0606C032842D02068FFF7F8FC00282B
:103ED0004AD100212068FFF7A4FB60670421206815
:103EE000FFF79FFBA06708212068FFF79AFBE067B8
:103EF0000C212068FFF795FBC4F88000606C032854
:103F000025D00EA92068FFF737FD00282CD1606C62
:103F100003281CD0BDF83800206501042068FFF795
:103F2000E4FC002820D100212068FFF77AFB6066BE
:103F300004212068FFF775FBA06608212068FFF7C1
:103F400070FBE0660C212068FFF76BFB2067042103
:103F50002068FFF766FB000DE06403A92046FDF72B
:103F60009FFD30B14FF0805010B010BD4FF0806019
:103F7000FAE7B4F85000002302042068FFF786FC3B
:103F80000028F1D104F1100007C88DE8070094E87B
:103F90000F00FFF74FFB0020E6E700002DE9F84F88
:103FA0000026044600963546B0460068FFF7DAFB67
:103FB000002827D12068FFF7FDFB4FF0805B4FF012
:103FC00001094FF6FF7748B1A6642068FFF7CAFBE6
:103FD000002817D1A06C012802D020E0C4F8489036
:103FE00000212068FFF758FB58B918E0002120682D
:103FF000FFF752FB002805D151462068FFF766FB0A
:1040000010B15846BDE8F88F00212068FFF709FB82
:1040100005464FEAD0780098401C009002E0DFF897
:104020002CA00098B84202D2B8F1000FDED0009860
:10403000B84202D34FF08070E4E7680002D5C4F8BC
:10404000449000E066640020DCE70000000010C13E
:1040500070B5064C054601202070FCF777F918B9B9
:104060002846FFF70BFE2070207870BD000000206E
:1040700010B5124888B014460078C00702D003205B
:1040800008B010BDC1B1012905D0022908D003290B
:104090000CD00420F4E76846FCF746F906980AE0DD
:1040A0006846FCF741F90798208005E06846FCF770
:1040B0003BF90798400A20600020E1E7000000205B
:1040C00070B51D46164608460124A31E2A463146F1
:1040D000FCF75CF928B900BFFCF72CF90028FBD1EC
:1040E0000024204670BDFFF7C9BD000070B51D4615
:1040F000164608460124A31E2A463146FCF758F905
:1041000028B900BFFCF716F90028FBD1002420468F
:1041100070BD70B588B015460E464FF0FF34FCF701
:104120002DF940B16846FCF7FFF80698401E306054
:1041300007982880002408B0204670BD00207047F2
:1041400010B5FCF703F9002010BD000070B54FF06A
:10415000FF35FCF713F90A4C60B194F90000002810
:1041600003DAFCF7F3F800202070FCF7E3F820B93D
:10417000002502E0207800B92570284670BD0000B7
:10418000780000200020704710B503240848FEF78F
:1041900067F850B900240648FDF776FD0328FAD0E9
:1041A0000348FDF75BFD0428FAD1204610BD00004E
:1041B0007C01002010B503240848FEF7D7F950B958
:1041C00000240648FDF760FD0328FAD00348FDF7F8
:1041D00045FD0428FAD1204610BD00007C010020D6
:1041E00070470178407841EA00207047FCF7F0BB47
:1041F00030B593B030216846FCF72EF814210CA896
:10420000FCF72AF819480025016841F08051016047
:10421000006800F0805011901548016841F4804119
:1042200001600068022400F4804011900120009099
:10423000000401908001CDE9064004200890A820E8
:10424000CDE9090407200B906846FDF7FBF90CA99E
:104250000F2081E831004FF4A0500F90E002109041
:1042600005210CA8FDF7FEF813B030BD4038024020
:10427000007000400548016841F470010160034985
:104280004FF00060803908607047000088ED00E062
:104290002DE9F041044600680169E26821F44051CB
:1042A000114301612169A068E26908436169114312
:1042B00008432168CA6849F20C639A430243CA6002
:1042C00020684169A26921F4407111434161E069AC
:1042D000192764253226B0F5004F354A3549206844
:1042E0004FF0000806D0884201D0904236D1FDF749
:1042F00069F935E0884201D0904202D1FDF762F9B8
:1043000001E0FDF74FF961684A18A0FB070148EB8F
:104310000803FBF757FF0146B0FBF5F00201B1FBC4
:10432000F5F06FF01803584301EB800006EBC00076
:10433000B0FBF5F000F0F80002EB4002B1FBF5F045
:10434000584301EB800006EBC000B0FBF5F000F035
:104350000700216810448860BDE8F081FDF722F96C
:1043600061688B0F8A00A0FB0701FBF72BFF01465A
:10437000B0FBF5F06FF01802504301EB800006EB44
:104380000010B0FBF5F000F0F002B1FBF5F002EB2D
:104390000012B1FBF5F06FF01803584301EB8000F9
:1043A00006EB0010B0FBF5F000F00F00D1E70000C5
:1043B000001401400010014010B5D0F8B8220AB135
:1043C00052689047002010BD134610B50A460021E0
:1043D00000F070FA002010BD134610B50A46002107
:1043E00000F007FB002010BD10B50446802100F04E
:1043F000E5FA2046BDE81040002100F0DFBA10B514
:1044000005210023C0F894121A46194600F052FA0A
:10441000002010BD10B502238261C0F89432C26141
:1044200013460A46002100F0E4FA002010BD10B542
:1044300004210023C0F894121A46194600F0D9FA54
:10444000002010BD10B50A46024903A000F0DFF8B5
:10445000004810BDD00500204D534320436F6E66C9
:10446000696700001220088000487047280000207B
:1044700010B50A46024903A000F0C9F8004810BD73
:10448000D00500204D534320496E74657266616308
:1044900065000000042008800048704724000020C8
:1044A00010B50A46024903A000F0B1F8004810BD5B
:1044B000D005002053544D6963726F656C65637459
:1044C000726F6E696373000010B50A46024903A05B
:1044D00000F09DF8004810BDD005002053544D3326
:1044E00032204D6173732053746F726167650000F1
:1044F00010B51A2008800A480168001D0468001DD4
:104500000068081809D008220649FEF75BF905493A
:10451000042210312046FEF755F90248801E10BDD6
:10452000107AFF1F3E000020F8B504460020ADF8C9
:10453000000048880D46010A08295FD2DFE801F033
:104540005E0409175E5E3C45D4F8B412207C0A680C
:1045500019E0207C02260028D4F8B80205D0C16AF0
:10456000684688470146467039E0816AF8E7C0B27C
:10457000062843D2DFE800F0030A1014181CD4F810
:10458000B402426805E0694690471CE0D4F8B402E2
:10459000826892B3207CF6E7D4F8B402C268F8E7E8
:1045A000D4F8B4020269F4E7D4F8B4024269F0E73F
:1045B000D4F8B4028269ECE7207CF0B9D4F8B802F0
:1045C000416B68468847014609E0207CA8B9D4F8C9
:1045D000B802016B68468847014607204870EA88A0
:1045E0008AB1BDF8000040B1824200D90246ADF860
:1045F00000202046FFF70EFFF8BDFFE729462046C2
:10460000FFF7F2FEF8E72046FFF711FFF4E770B579
:10461000002300281ED00025044602E06D1CEDB2E8
:10462000641C2678002EF9D1022404EB4504148082
:104630001278CA545B1C0322CA5400245B1C06E097
:10464000CA545B1CDAB28C54521CD3B2401C0278A0
:10465000002AF5D170BD01004FF0000004D00129FF
:1046600001D0022901D0032070470120704730B4E7
:10467000A0B1D0F8B84200230CB1C0F8B832D0F8DD
:10468000CC420CB1C0F8CC3209B1C0F8B41201214F
:1046900080F89C12027030BC00F0BCB830BC032023
:1046A000704710B5D0F8C402FCF794FABDE810408A
:1046B000FFF7D1BF10B5D0F8C402FCF765FABDE82A
:1046C0001040FFF7C8BF70B51646044649B1D4F88C
:1046D000B80242691AB194F89C02032842D0032020
:1046E00070BDD4F89412002504F11400022932D1CF
:1046F000D0E902318B4206D95A1A826031462046EF
:10470000FFF76AFE0FE0994214D14068884211D346
:10471000D4F8981288420DD2002211462046FFF7A5
:104720005BFEC4F8985200231A461946204600F052
:10473000C1F810E0D4F8B802C16829B194F89C021D
:10474000032801D1204688478021204600F036F911
:104750002046FFF754FE94F8A002012806D184F801
:10476000A05203E0204690470028B9D1002070BD38
:1047700010B51346044649B1D4F8B80282691AB19B
:1047800094F89C02032824D0032010BDD4F894127E
:1047900004F5AA70032920D1D0E9021291420AD966
:1047A0008A1A8260C068824200D3024619462046B7
:1047B000FFF70AFE11E0D4F8B802016929B194F8B4
:1047C0009C02032801D1204688472046FFF72FFE90
:1047D00003E0204690470028D7D1002010BD0020DC
:1047E000704710B5012180F89C12D0F8B82212B1A0
:1047F000526801799047002010BD10B5D0F8C4026E
:10480000FCF716FABDE81040FFF725BFD0F8C40248
:10481000FCF728BA10B5017839BB15490222C1F856
:104820000404C0F8C4124FF0A0400860042048609F
:104830000020C1E90320C1E9062008624862C8627D
:1048400008630846FCF7E8FC08B1FBF722FE80216C
:104850000748FCF758F9402200210548FCF757F9B2
:10486000802201210248FCF752F9002010BD00000F
:10487000D00700200A0601F07F01D0F8C402C1EB86
:10488000C10100EB810002D590F83E00704790F81E
:10489000FE017047002070470020704710B51C468D
:1048A0001346D0F8C4022246FCF7E5F9BDE81040F3
:1048B000FFF7D1BE10B5D0F8C402FCF70CFABDE882
:1048C0001040FFF7C8BE70B50125044680F89C5221
:1048D0000020C4F894026060C4F8A402D4F8BC02BA
:1048E00028B1D4F8B802002142682046904700223F
:1048F000402311462046FFF7D1FF4026A4F864511B
:104900003346002280212046C4F86061FFF7C6FFCD
:10491000A5840020266270BD90F89C12042903D162
:1049200090F89D1280F89C120020704710B590F806
:104930009C12032904D1D0F8B812C96901B1884783
:10494000002010BD01740020704710B5D0F8C402DB
:10495000FCF734FDBDE81040FFF77DBE70B504469E
:1049600000F2AA20054600F027F90120C4F89402BD
:10497000B4F8B002C4F8980294F8AA0210F01F012B
:104980000AD001290ED0022912D000F08001204661
:10499000BDE8704000F012B829462046BDE87040DE
:1049A00000F09CB929462046BDE8704000F0C6BA28
:1049B00029462046BDE8704000F01ABA10B5D0F87C
:1049C000C402FCF7ACF9BDE81040FFF744BE10B5D7
:1049D000D0F8C402FCF70DFDBDE81040FFF73BBE68
:1049E00090F89C1280F89D12042180F89C120020FF
:1049F000704710B5D0F8C402FCF7CBF9BDE8104001
:104A0000FFF729BE10B5FDF79DFF002010BD10B5C2
:104A1000FDF7B5FF002010BD70B504460121FFF77A
:104A200049FE0025A4F8785181212046FFF742FE77
:104A300025872046FDF7C0FFD4F8BC0218B100F06E
:104A4000D3FFC4F8BC52002070BD00000A210180D1
:104A5000004870472801002020210180004870474D
:104A6000E80000202021018000487047C800002095
:104A700020210180004870470801002070B50446DD
:104A80004FF41D7000F0EAFFC0B1C4F8BC02207CF6
:104A90000125C0B14023022201212046FFF7FEFE7E
:104AA000A4F878514023022281212046FFF7F6FE28
:104AB00025872046FDF785FF002070BD0020C4F843
:104AC000BC02022070BD4FF4007633460222012161
:104AD0002046FFF7E3FEA4F878513346E3E719B127
:104AE000C0F8C0120020704703207047F8B50025B9
:104AF000D0F8BC720646ADF8005008780C4610F0AD
:104B0000600120D020293DD16178FE2902D0FF2903
:104B100038D10EE0618881BBE188012932D10006DD
:104B200030D5D6F8C0028069804701223946386006
:104B30001FE0618809BBE188F9B9000622D430463C
:104B4000FDF762FF23E0607830B1012824D00A2805
:104B500009D00B2816D111E096F89C02032811D138
:104B60000222694605E096F89C0203280AD1012238
:104B7000391D3046FFF74EFC09E003E096F89C0231
:104B8000032806D021463046FFF72EFC0325284691
:104B9000F8BDA0787860FAE796F89C020328F6D171
:104BA00060880028F3D121793046FFF726FE21796D
:104BB0003046FDF7ABFEEAE770B5054611F8010B8C
:104BC0002870087868704C1C2046FFF70AFB688044
:104BD000A41C2046FFF705FBA880A01CFFF701FBE3
:104BE000E88070BD38B504460020ADF8000041B142
:104BF000C4F8B812896A68468847C4F8CC02002015
:104C000038BD032038BD02460320D2F8B832002B4D
:104C100002D01B6810461847704700002DE9F0418C
:104C20000F462C4E8978002504463170012906D99B
:104C300039462046FFF7D8FB0320BDE8F08194F801
:104C40009C0202280CD003281DD039462046FFF7CD
:104C5000CBFB31782046FFF7AFFB03252846ECE776
:104C600099B320466160FFF7CEFF050004D03946B6
:104C70002046FFF7B9FBF1E72046FFF7D8FB0320FA
:104C800084F89C02EAE74FF00208C1B160688842EC
:104C90001BD0C1B22046FFF78FFB31782046616000
:104CA000FFF7B1FF050010D039462046FFF79CFB07
:104CB00021792046FFF780FB84F89C82CEE784F8B8
:104CC0009C8220466160FFF777FB2046FFF7AFFB31
:104CD000C4E700008C000020FFF779BE2DE9F04109
:104CE0000A78002512F0600208D0202A01D0402A5C
:104CF00071D1D0F8B8229268904731E04B78002209
:104D000001260A2B67D2DFE803F0415E6658660889
:104D100005662D29FFF708FC5FE004468888D8B9AE
:104D2000C888C8B94888802816D200F07F0794F850
:104D30009C02032810D084F89E7239462046FFF763
:104D400004FE2046FFF773FB1FB1022084F89C028B
:104D500043E084F89C6240E020463CE0FFF75EFFC1
:104D600005463AE0CB88012B35D190F89C32012BD7
:104D700004D0022B02D0032B2DD104E0826001224B
:104D800000F1080116E00122011D13E090F89C22B9
:104D9000012A03D0022A01D0032A1CD1CA88022A80
:104DA00019D1C660D0F8A41209B10321C160022252
:104DB00000F10C01FFF72EFB0FE0498801290CD10F
:104DC000C0F8A46211E090F89C32012B08D0022BAD
:104DD00006D0032B04D0FFF707FB2846BDE8F0817F
:104DE00049880129F9D1C0F8A422FFF720FBF4E794
:104DF0002DE9F0410D46044628780027097910F086
:104E000060000BD0202801D0402873D1D4F8B8021C
:104E1000294682682046904707468CE06878D8B3D8
:104E2000012822D0032865D194F89C02022802D0E0
:104E300003287CD10BE0002979D0802977D0204647
:104E4000FFF7BCFD80212046FFF7B8FD73E06888BE
:104E500038B931B1802904D0E88810B92046FFF76D
:104E6000ADFD2046FFF7E3FA65E094F89C020228C6
:104E7000E1D003285BD16888D8BB480602D0204621
:104E8000FFF70FFC2046FFF7D2FAD4F8B802294604
:104E90008268204690474EE0FFE794F89C02002687
:104EA000022802D0032842D111E009B180293ED165
:104EB000080601F07F0000EB800004EB800101D5C3
:104EC000143101E001F5AA7102220E602BE0080600
:104ED00001F00F0000EB800004EB80000BD5808C0C
:104EE00040B101F07F0000EB800004EB8005143539
:104EF0000CE020E01BE0B0F86401C0B101F07F00DD
:104F000000EB800004EB800505F5AA7541B180290E
:104F100006D02046FFF7AEFC10B10120286000E06B
:104F20002E60022229462046FFF774FA03E0294644
:104F30002046FFF759FA3846BDE8F08170B50646BD
:104F4000087800240D4610F0600003D0202801D01E
:104F5000402817D196F89C02012803D0022801D0DE
:104F600003280FD1287901280CD8D6F8B802826816
:104F7000304690470446E888204306D13046FFF784
:104F800056FA02E03046FFF72FFA204670BD0000C7
:104F900070B50A78012302F00F054E78AB401B4C28
:104FA000D0F81C58012E17D045EA0343C0F81C382E
:104FB00000EB4210D0F8002B12040BD4D0F8002BD9
:104FC0000B89C978C3F30A031A4344EA81410A43AF
:104FD000C0F8002B002070BD9BB21D43C0F81C58C8
:104FE00000EB4210D0F800391B04F3D4D0F800399C
:104FF0000D89C978C5F30A0589042B4341EA82511A
:105000000B432343C0F80039E4E7000000800010A0
:10501000D0F800196FF30A01C0F80019D0F804188D
:1050200041F48071C0F804180020704770B5044640
:1050300006990A9E049D0D98012916D0E06840F05B
:105040004000E060204600F02BF8A16B1EB321F475
:105050008031A163012D07D1A16841F00601A16053
:10506000A16841F02001A16070BDA16B21F48031E5
:10507000A163E168094A1140E160E16821F440114F
:10508000E160012803D1E06840F48010E060204630
:1050900000F006F8DEE741F48031DAE7BFFFBDFF3C
:1050A00001220C4902E0521C8A420BD80369002BF2
:1050B000F9DA026942F001020261012204E0521CA5
:1050C0008A4201D9032070470369DB07F7D100202A
:1050D00070470000400D030030B54C780A7801237A
:1050E00000EB4212012C2CD0D2F8004B002C0BDA32
:1050F000D2F8004B44F00064C2F8004BD2F8004BE9
:1051000044F08044C2F8004BD0F83C580C7804F0CE
:105110000F0403FA04F425EA0444C0F83C48D0F82C
:105120001C48097801F00F018B4024EA0341C0F8C4
:105130001C18D2F8000B19490840C2F8000B0020D7
:1051400030BDD2F80049002C0BDAD2F8004944F007
:105150000064C2F80049D2F8004944F08044C2F823
:105160000049D0F83C480D7805F00F0503FA05F525
:10517000ADB2AC43C0F83C48D0F81C48097801F007
:105180000F018B4099B28C43C0F81C48D2F800093B
:1051900003490840C2F80009D1E700000078F3EFA6
:1051A000007833ECD0F8001E21F00301C0F8001E97
:1051B000D0F8041821F00201C0F80418002070474C
:1051C000D0F8001E21F00301C0F8001ED0F804182A
:1051D00041F00201C0F80418002070472DE9F04F9B
:1051E00000250E460446DDF82CC0DDF824B0109FE3
:1051F0002846294604EB8002C2F80411401C0F28FF
:10520000F8D32046C7B1806B20F40012A263A06BD4
:1052100040F40022A26308468846C4F8000ED4F881
:1052200000182046C4F80018BCF1010F16D0D0F8C1
:10523000001841F0030116E0D0F8040840F0020223
:10524000C4F80428A06B40F40012A263A06B20F401
:105250000022A263A06B20F48022DBE7D0F80018C4
:105260000BB141F00101C0F80018102100F090FAD4
:1052700000B10125204600F07BFA00B1012540462F
:10528000C4F81088C4F81488C4F81C8800214FF0B2
:1052900000694FF0904A4FF67F3314E004EB41125F
:1052A000D2F800C9BCF1000F06DA11B1C2F800A9AA
:1052B00004E0C4F8009901E0C2F80009C2F810093E
:1052C000C2F80839491C8E42E8D8002115E000BF19
:1052D00004EB4112D2F800CBBCF1000F06DA11B199
:1052E000C2F800AB04E0C4F8009B01E0C2F8000B78
:1052F000C2F8100BC2F8083B491C8E42E8D8D4F81B
:10530000101821F48072C4F81028A0616FF080405A
:105310006061BBF1000F03D1A06940F01000A061F3
:10532000A06909490843A0610C9818B1A06940F030
:105330000800A061012F03D1A06904490843A061BE
:105340002846BDE8F08F000000383C800400004093
:10535000816821F0010181600020704770B50D78EF
:105360004E78434CEBB200EB4313012E1FD0D3F821
:10537000100B6FF31200C3F8100BD3F8100B204082
:10538000C3F8100B486908B188684861D3F8100B5E
:1053900040F40020C3F8100BD3F8100B8C68C4F352
:1053A00012042043C3F8100B012A55D058E04E696F
:1053B000002ED3F8106932D06FF31206C3F81069CB
:1053C000D3F810692640C3F810694E698C68A6426C
:1053D00000D94C61D3F8104944F40024C3F81049B3
:1053E000D3F810494E69C6F312063443C3F8104986
:1053F000012A22D000EB4512D2F8003943F00443D1
:10540000C2F800394A6932B3D0F83428097801F07B
:105410000F03012199400A43C0F8342826E02640B2
:10542000C3F81069D3F8104944F40024C3F81049B4
:10543000D3F810496FF31204D8E7096919B100EBEA
:105440004512C2F8141900EB4510D0F8001941F0CC
:105450000441C0F8001909E0C86808B1C3F8140B8A
:10546000D3F8000B40F00440C3F8000B002070BDDF
:10547000FFFF07E010B5036C134CA34203D9D0F82B
:10548000003B002B1EDB0023C0F8103BD0F8103B84
:1054900043F40023C0F8103BD0F8103B43F018034E
:1054A000C0F8103BD0F8103B43F0C043C0F8103BAD
:1054B000012907D1C0F8142BD0F8001B41F080213E
:1054C000C0F8001B002010BD0A30544F4A780B78FA
:1054D000012A00EB43100BD0D0F8002B22F400126D
:1054E000C0F8002BC978032914D0022912D017E084
:1054F000D0F8002922F40012C0F80029C978032945
:1055000001D002290CD1D0F8001941F08051C0F827
:10551000001905E0D0F8001B41F08051C0F8001BD5
:10552000002070470A784B78D1B200EB4110012B74
:1055300012D0D0F8001B002906DB2AB1D0F8001BDE
:1055400021F08041C0F8001BD0F8001B41F400118D
:10555000C0F8001B00207047D0F80019002906DBB6
:105560002AB1D0F8001921F08041C0F80019D0F814
:10557000001941F40011C0F80019EBE7F8B50C78F8
:105580004F78774DE3B26FF0604600EB4313012F85
:1055900026D0D3F8104B6FF31204C3F8104BD3F896
:1055A000104B2C40C3F8104B4C69002C74D08D6804
:1055B0002C44641EB4FBF5F4D3F8105BA4B206EAE5
:1055C000C4463543C3F8105BD3F8105B8E6866435E
:1055D000C6F312042543C3F8105B012A71D0A6E07C
:1055E0004F691FB3D3F810796FF31207C3F810791E
:1055F000D3F810792F40C3F810794F698D682F4484
:105600007F1EB7FBF5F506EAC545D3F810693543AB
:10561000C3F81059D3F810594E69C6F31206354332
:10562000C3F81059CD78012D10D01BE0D3F81069C4
:105630002E40C3F81069D3F8105945F40025C3F87B
:105640001059D3F810596FF3120509E0D3F8105927
:1056500025F0C045C3F81059D3F8105945F000554E
:10566000C3F81059012A18D000EB4413D3F80049AD
:1056700044F00444C3F80049CC78012C2FD04A6987
:1056800062B3D0F83428097801F00F030121994062
:105690000A43C0F8342860E036E00A691AB100EB2A
:1056A0004413C3F81429C97801290FD1D0F8081878
:1056B000C90500EB4411D1F8002903D442F000528F
:1056C00002E030E042F08052C1F8002900EB4410C3
:1056D000D0F8001941F00441C0F800193DE0D0F8BD
:1056E0000848E405D3F8004902D444F0005401E02E
:1056F00044F08054C3F8004900928A8A93B20A7831
:10570000C96800F03FF928E0D3F8104B8D68C5F365
:1057100012052C43C3F8104BD3F8104B44F400246B
:10572000C3F8104B59E7CA680AB1C3F8142BC978FB
:1057300001290CD1D0F80808C005D3F8000B02D419
:1057400040F0005001E040F08050C3F8000BD3F867
:10575000000B40F00440C3F8000B0020F8BD00002F
:10576000FFFF07E0816841F0010181600020704780
:10577000002110220261054A491C914201D90320EF
:1057800070470369DB06F7D400207047400D030023
:105790000022202343EA811101610549521C8A42FB
:1057A00001D90320704703699B06F7D40020704796
:1057B000400D0300D0F8080810F0060004D00228BD
:1057C00003D0062801D00F2070470220704740699F
:1057D00000F001007047D0F81818D0F81C080840F5
:1057E00080B27047D0F81818D0F81C080840000C98
:1057F000704710B5D0F81038D0F8342801F00F04F5
:1058000000EB4110E24002F00102D0F8080943EA3F
:10581000C212104010BD00EB4111D1F8081BD0F8A6
:105820001408084070474169806908407047D21CDD
:1058300010B59308002200F5805002E00468521C65
:1058400010C19A42FAD3084610BD10B5C26822F0C2
:10585000C042C260012902D029B1012010BDC16837
:1058600041F0005102E0C16841F08041C160322046
:10587000FAF7BAFF002010BDD0F8002822F4FE622B
:10588000C0F80028D0F800284FF4FE6303EA0111A5
:105890000A43C0F80028002070470000022A3ED1C9
:1058A000264A274B0A449A4201D20F2138E0254A62
:1058B000254B0A449A4201D20E2131E0234A244B5F
:1058C0000A449A4201D20D212AE0224A224B0A447C
:1058D0009A4201D20C2123E0204A214B0A449A42E9
:1058E00001D20B211CE01F4A1F4B0A449A4201D2ED
:1058F0000A2115E01D4A1E4B0A449A420FD31D4A45
:105900001D4B0A449A4201D2082109E01B4A114466
:105910001B4A914201D2072102E0062100E0092141
:10592000C26822F47052C260C2684FF4705303EA36
:1059300081210A43C260002070470000405327FFC6
:1059400000350C00401E1BFF40420F0000DC0BFF27
:10595000804F1200808CF9FE20D6130060B6E5FE61
:1059600060E3160000D3CEFE40771B00C05BB3FEA1
:10597000C091210000CA91FE20753800E05459FE04
:10598000E09C410010B5029C64B9DB1C9C0800EB54
:105990000230002300F5805002E004C902605B1C65
:1059A000A342FAD3002010BDFEE70907090E002824
:1059B00004DB00F1E02080F80014704700F00F00D5
:1059C00000F1E02080F8141D704702E008C8121FA3
:1059D00008C1002AFAD170477047002001E001C1D8
:1059E000121F002AFBD1704710B5002821D0114B9F
:1059F0000022001F196803E0814203D80A46496863
:105A00000029F9D152B11368841A9C4204D100686C
:105A100018441060104602E0506000E0186039B190
:105A200002680B1A934203D10B681A44026049685A
:105A3000416010BD74010020FAF7D2FFFEF7D8FBD9
:105A4000FDF746F8FDF718F8FDF770F8FDF77EF85A
:105A5000FDF730F8FDF796F8FEE70000F0B50B30E3
:105A6000154D20F007010024144A0FE003688B4213
:105A70000BD38B4205D95E1A43184768C3E9006708
:105A800000E04368136002C004E0021D10680028B3
:105A9000ECD12046002802D1286808B10020F0BDD2
:105AA000064A07481060074A121A22F00702C0E9A6
:105AB000002401202860D7E778010020740100202D
:105AC000EC0B0020E81B002051400008E7400008D4
:105AD000C1400008ED40000871400008008002024B
