:020000040800F2
:10000000F80400209D010008F5170008F916000803
:10001000F11700087D030008112700080000000008
:10002000000000000000000000000000B1240008F3
:10003000810300080000000025180008E5240008DE
:10004000B7010008B7010008B7010008B7010008B0
:10005000B7010008B7010008B7010008B7010008A0
:10006000B7010008B7010008B7010008B701000890
:10007000B7010008B7010008B7010008B701000880
:10008000B7010008B7010008B7010008B701000870
:10009000B7010008B7010008B7010008B701000860
:1000A000B7010008B7010008B7010008B701000850
:1000B000B7010008B7010008B7010008B701000840
:1000C000B7010008B7010008B7010008B701000830
:1000D000B7010008B7010008B7010008B701000820
:1000E000B7010008B7010008B7010008B701000810
:1000F000B7010008B7010008B7010008B701000800
:10010000B701000869180008B7010008B701000826
:10011000B7010008B7010008B7010008B7010008DF
:10012000B7010008B7010008B7010008B7010008CF
:10013000B7010008B7010008B7010008B7010008BF
:10014000B7010008B7010008B7010008B7010008AF
:10015000B7010008B7010008B7010008B70100089F
:10016000B7010008B7010008B7010008B70100088F
:10017000B7010008B7010008B7010008000000003F
:10018000B7010008B7010008DFF80CD000F07AF8DA
:10019000004800479D270008F804002006488047D3
:1001A00006480047FEE7FEE7FEE7FEE7FEE7FEE75C
:1001B000FEE7FEE7FEE7FEE7892500088901000863
:1001C0002DE9F05F0546002092469B46884606468C
:1001D000814640241BE0284641464746224600F01F
:1001E00041F853465A46C01A914110D31146184659
:1001F000224600F028F82D1A67EB01084F462246E8
:100200000120002100F01FF817EB00094E41201ECD
:10021000A4F10104DFDC484631462A464346BDE8E6
:10022000F09FD2B201E000F8012B491EFBD27047CB
:100230000022F6E710B513460A4604461946FFF7B2
:10024000F0FF204610BD202A04DB203A00FA02F11C
:10025000002070479140C2F1200320FA03F31943B4
:1002600090407047202A04DB203A21FA02F0002156
:10027000704721FA02F3D040C2F1200291400843B6
:1002800019467047064C074D06E0E06840F0010350
:1002900094E8070098471034AC42F6D3FFF778FF94
:1002A000B82B0008D82B00087047000080B5014625
:1002B00040F22800C2F2000000F0DAFD80BD00002C
:1002C00080B540F22800C2F2000000F0E3FD0438DF
:1002D00018BF012080BD000010B500F01BF80128F8
:1002E0001CBF012010BD40F22800C2F2000000F047
:1002F000B5FE044608B1204610BD40F22800C2F207
:1003000000004FF4006100F097FC002818BF0124A2
:10031000204610BD81B001208DF803009DF8030038
:1003200001B0704780B582B09C4613460A4601462C
:1003300040F22800C2F20000CDF800C000F040FFFB
:10034000002818BF012002B080BD000070470000E7
:1003500080B582B09C4613460A46014640F228000A
:10036000C2F20000CDF800C001F03EF8002818BF2E
:10037000012002B080BD000070470000FEE70000D1
:10038000704700007047000080B5002200F002F8BE
:1003900080BD000080B540F21C0EC2F2000E9EF837
:1003A0000930002B1CBF012080BD9EF80930844617
:1003B00000200EF803009EF809300EEB8303C3F80B
:1003C00004C09EF8093073441A729EF80920531C29
:1003D00030328EF809300A7042F63A72A1F80120E4
:1003E000C87080BD90F83510022909D1052180F828
:1003F00035100068016821F001010160002070479C
:100400008021416501207047B0B5044600F0DAF85C
:10041000054640F20C00C2F200000078611C18BFD3
:10042000044400BF00F0CEF8401BA042FAD3B0BD98
:100430002DE9F04F83B000F13E4202F1FF724FEA26
:10044000B22241F600470192C4F2020708220126B7
:1004500000254FF000084FF00009B84208BF0722FE
:10046000009209E009F1010908F10408B9F1100F3F
:1004700005F1020500F0A3800C6806FA09FB14EAF6
:100480000B0CEFD0D1F804A0BAF1120F17D806FA6E
:100490000AF414F0061F12D084680322CF6802FA0F
:1004A00005FE24EA0E04AF40274387604768CAF37D
:1004B000001427EA0B0704FA09F4274347600322D4
:1004C000C76802FA05F48A68A743AA403A434AF08B
:1004D00010076FEA040E122FC26010D16FF00302F2
:1004E00002EA59020244176A08F01C060F230C693D
:1004F000B34027EA0303B440012623431362026892
:100500004B6802EA0E0203F00307AF403A43DB00F8
:100510000260A7D5002243F644030292C4F202030C
:100520001A6843F6004442F480421A601A68C4F222
:10053000010402F480420292029A29F003024FF66B
:10054000084A2244CFF6FF7A52F80A3008F00C0726
:100550000F26BE4023EA060E019B009E072B38BFE4
:100560001E4606FA07F747EA0E0342F80A302268E9
:100570004B6842EA0C07DE0358BF22EA0C072760EB
:1005800062689E0342EA0C0758BF22EA0C076760C4
:10059000A268DE0242EA0C0758BF22EA0C07A760F5
:1005A00043F60C47C4F201073A689B024FF001067C
:1005B00042EA0C0358BF22EA0C033B6052E703B047
:1005C000BDE8F08F40F2F000C2F200000068704712
:1005D00040F20C0040F2F001C2F20000C2F2000151
:1005E00000780A68104408607047000080B543F640
:1005F0000040C4F20200016841F40071016001682A
:1006000041F480610160016841F480710160032060
:1006100000F060F8002000F005F800F02BF8002052
:1006200080BD0000B0B540F20C02C2F2000240F200
:1006300008011278C2F200014FF47A730968B3FB23
:10064000F2F20446B1FBF2F1084600F0CBFF0F2CAA
:100650004FF001050CD858B94FF0FF302146002269
:10066000002500F027F840F21000C2F200000460FC
:100670002846B0BD82B0002043F640010190C4F28C
:1006800002014A6842F480424A604A6802F48042A9
:100690000192019A0090086840F080500860086854
:1006A00000F080500090009802B0704780B502F0D2
:1006B00031F880BD70B514460D46064602F03AF892
:1006C0002946224601F098F80146304602F03AF8F1
:1006D00070BD000080B502F047F880BD2DE9F04103
:1006E000002800F08B8043F60808C4F20208044694
:1006F000D8F8F8030D4600F00F00884207D288F8BA
:10070000F853D8F8F80300F00F00A84276D120681B
:10071000810717D5410705D5D8F8001041F4E051FD
:10072000C8F80010010705D5D8F8001041F4604161
:10073000C8F80010D8F80010A26821F0F0011143A9
:10074000C8F80010C0073FD1D8F8F80300F00F0038
:10075000A84207D988F8F853D8F8F80300F00F003A
:10076000A8424BD12068410707D5D8F80010E268AD
:1007700021F4E0511143C8F80010000708D5D8F85B
:100780000000216920F4604040EAC100C8F8000080
:1007900000F07EF8D8F8001042F66032C1F3031181
:1007A000C0F60002515C40F2080220FA01F140F26A
:1007B0001000C2F200000068C2F200021160FFF7F0
:1007C00031FF0020BDE8F0816068811E022907D258
:1007D00058F8081C89015CBF0120BDE8F08110E0D9
:1007E000012807D158F8081C89035CBF0120BDE827
:1007F000F08106E058F8081C890702D40120BDE802
:10080000F081D8F8001021F003010843C8F8000077
:10081000FFF7D8FE064641F2883700BFD8F800003F
:10082000616800F00C00B0EB810F8DD0FFF7CAFEBD
:10083000801BB842F2D90320BDE8F08140F20800E5
:10084000C2F200000068704780B5FFF7F7FF43F67B
:100850000801C4F20201096842F67032C1F3822134
:10086000C0F60002515CC84080BD000080B5FFF7B3
:10087000E5FF43F60801C4F20201096842F670324E
:10088000C1F34231C0F60002515CC84080BD000097
:1008900010B543F60404C4F20204606800F00C01D1
:1008A00042F200400829C0F2F40007D0042918BF22
:1008B00010BD41F20020C0F27A0010BD216801F0A5
:1008C0003F02216823684902C3F3881105D4A1FBC4
:1008D00000010023FFF774FC06E041F20020C0F2A3
:1008E0007A004843B0FBF2F021680222C1F30141D3
:1008F00002EB4101B0FBF1F010BD00002DE9F04129
:1009000082B0002800F097800446007843F6000685
:10091000C007C4F2020641D0B06800F00C00042801
:1009200005D13068800339D56068B8BB83E0B06812
:1009300000F00C00082802D170684002F1D465680C
:10094000B5F5803F06D03068B5F5A02F06D140F44C
:1009500080203060306840F4803005E020F4803042
:100960003060306820F480203060FFF72BFE002DCF
:10097000054610D03068800310D4FFF723FE401BDB
:100980006428F7D91AE100BFFFF71CFE401B64285A
:100990004FF003004CD830688003F5D420788007EE
:1009A0001AD5B06810F00C0F09D0B06800F00C0038
:1009B000082840F084807068400200F18080306830
:1009C000800702D5E068012835D13068216920F020
:1009D000F80040EAC1003060207800072FD420786A
:1009E000400742D4A56915B3B06800F00C00082890
:1009F00040F09880012D1ED07068E16900F48002FB
:100A00008A4218D1216A00F03F028A4213D147F688
:100A1000C071626A014091420DD1A16A00F4403276
:100A20008A4208D1E16A00F07060884203D1002058
:100A300002B0BDE8F081012002B0BDE8F08160693C
:100A4000002840F20000C4F247205AD00121C0F82B
:100A5000801EFFF7B7FD0546706F8007BFD4FFF714
:100A6000B1FD401B0228F7D9A8E0306C4FF0000818
:100A7000C0000CD4CDF80480306C4FF0010840F079
:100A800080503064306C00F080500190019847F243
:100A90000007C4F200073868C00525D4386840F460
:100AA00080703860FFF78EFD054600BF3868C005CE
:100AB0001AD4FFF787FD401B0228F7D97EE0E068D3
:100AC000002851D00020C4F2472001210160FFF727
:100AD00079FD0546306880073FF577AFFFF772FD77
:100AE000401B0228F6D969E0A568012D05D0306FBA
:100AF000052D4DD140F004003067306F40F001000B
:100B00004CE00021C0F8801EFFF75CFD054600BFE9
:100B1000706F80077FF563AFFFF754FD401B02281D
:100B2000F6D94BE00027C4F2472700203866FFF7CC
:100B300049FD022D05460BD13068800156D5FFF7DF
:100B400041FD401B02284FF00300F5D970E700BFBC
:100B5000306880017FF56BAFFFF734FD401B022842
:100B60004FF00300F4D963E70020C4F247200021CE
:100B70000160FFF727FD0546306880077FF52CAF41
:100B8000FFF720FD401B02284FF00300F4D94FE788
:100B900020F001003067306F20F004003067FFF76D
:100BA00011FD002D054641F2883713D0306F8007C4
:100BB00013D4FFF707FD401BB842F7D9032002B05A
:100BC000BDE8F081FFF7FEFC401BB8424FF0030088
:100BD0003FF62EAF306F8007F4D4B8F1000F3FF42A
:100BE00001AF306C20F080503064FBE604F11C054E
:100BF0002FCD084340EA8210D9034FF6FF7291438C
:100C0000A1F5803140EA0560084370600120386634
:100C1000FFF7D8FC044600BF306880013FF507AFFE
:100C2000FFF7D0FC001B02284FF00300F4D9FFE6C9
:100C300080B5FFF739FB80BDB0B584B00446032012
:100C400084F83400606C0D4603280AD035B3B5F53E
:100C5000805F06D0B5F5006F24D1204601F06AFB15
:100C600001E04FF08050A16B0843A063A06B38B146
:100C7000206840F2FF51C0F240018163012008E08A
:100C800094E80F00D4E905CE8DE8205000F0F4FD83
:100C90000020012184F8341004B0B0BD204601F0DA
:100CA0001DFBE0E74FF00060DDE70000704700004B
:100CB000D0E91D2C130E0B70130A4B804FEA1C2336
:100CC00043EA02624A60D0E91E230A721A0E4A728F
:100CD00090F8832042EA0322CA60D0F88000C0F373
:100CE00003520A74C0F30B22C0B240084A8208754E
:100CF000012200204A75704780B5D0E9193ED0F82E
:100D000044C09A0F0A70C3F383624A70C3F301624E
:100D10008A701A0CCA701A0A0A714FEA1E524B7175
:100D2000CA80CEF303420A72CEF3C0324A72CEF3C7
:100D300080328A72CEF34032CA72CEF300320A7326
:100D40000022BCF1010F4A732DD0BCF1000F40F01E
:100D5000808040F6FC72C36E02EA8E0242EA937211
:100D60000A61C26EC2F3C2630B75C2F302634B75B4
:100D7000C2F342538B75C2F38243CB75C2F3C232C6
:100D80000A760A690B7E013203F0070302339A40A8
:100D900042650B7A03F00F0C012303FA0CF3836511
:100DA0005B0A5A430FE0B0F86E200EF03F0342EAB0
:100DB00003420A610A694FF4806303EB82224FF415
:100DC0000073C0E91523C2654FF400720266D0E9D2
:100DD0001B20C2F380334B76C2F3C61302F07F02AE
:100DE0008B76CA76C20F0A77C0F341724A77C0F396
:100DF00082628A77C0F38352CA77C0F3405281F887
:100E00002020002281F82120C0F3004381F8223005
:100E1000C0F3C03381F82330C0F3803381F824302D
:100E2000C0F3403381F82530C0F3003381F8263019
:100E3000C0F3812381F82730C0F30123C0B24008FA
:100E400081F8283081F82900012081F82A00104615
:100E500080BD016840F2FF52C0F240028A63816B9C
:100E6000012241F08051816380F83420104680BD1A
:100E700080B500F1440E9EE80C5081E80C10426DE4
:100E8000C1E903E2D0E91623C1E90523026E00207F
:100E9000CA6180BD10B582B004460020019001A94E
:100EA000204601F003FA10B1A16B0843A06301983A
:100EB000C0F3432002B010BD70B504460068256B36
:100EC000416B15F0080618BF11F4004152D1416B77
:100ED000C90553D4416B002E18BF11F480416AD16B
:100EE000416B40F23A22114264D0416B890703D52D
:100EF000A16B41F00201A163416B090703D5A16B0E
:100F000041F00801A163416B890603D5A16B41F053
:100F10002001A163416BC90603D5A16B41F010010B
:100F2000A163416B890503D5A16B41F00801A16361
:100F300040F23A718163C16B40F23A329143C1632E
:100F400000F032FEA16B002E40EA0100A06354D1F4
:100F500028062FD515F0300F64D0E06B41F6BD7137
:100F6000C0F600010165FFF73DFA18B3E06B01F030
:100F700025F870BD204601F083F970BD4FF48071F3
:100F80008163C16B4CF23A329143C163C16A21F073
:100F90000101C1629EB929060CD5A90608D500F049
:100FA00003FE28B1A16B0843A0632046FFF77EFE35
:100FB000A8072BD070BD204601F0E8F970BD15F0F0
:100FC000220F08D000F0F0FD28B1A16B0843A06308
:100FD0002046FFF76BFE206840F23A518163012002
:100FE00084F834000020A9072063204602D000F0D6
:100FF000F3F970BD00F0F4F970BD012084F83400FD
:10100000002020632046FFF751FE70BD2068C16AB2
:1010100021F00801C162012084F83400204600F06C
:10102000DFF970BDA8070ED0206C41F67971C0F6CB
:1010300000010165FFF7D6F9002808BF70BD206CDC
:1010400000F09AFF70BD00200121A06384F83410E5
:1010500020632046FFF7ECFD70BD000010B5D0B155
:10106000044690F8340020B900202077204600F094
:1010700049F8032084F83400204600F00FF80028D7
:101080004FF0010018BF10BD0021A163216384F857
:101090003400002010BD012010BD0000F0B583B069
:1010A00004460068762100260291002100220023D8
:1010B0000096019600F0E0FB4FF00105F8B948F208
:1010C000A007C4F225273E60206800F0EBFB204615
:1010D0003D6001F07DF830B1012584F83450A16BFA
:1010E0000843A0630BE0204600F0F4FF30B1012577
:1010F00084F83450A16B0843A06300E00025284623
:1011000003B0F0BD2DE9F04387B000260696CDE987
:10111000046642F600450068C4F20105A842039641
:10112000029602D007B0BDE8F08343F63000019686
:10113000C4F20200416902AC41F4006141614169BD
:101140004FF0020801F400610191019901960168D4
:101150004FF0030941F00401016001680C2701F020
:101160000401019101990196016841F008010160B3
:101170000068214600F00800019001984FF4F850F3
:10118000029005F55C40CDE90386CDF814900697F2
:10119000FFF74EF90420CDE9020805F5604021462D
:1011A000CDE904690697FFF743F9312001210022B8
:1011B000FFF780FA3120FFF779FA07B0BDE8F08336
:1011C0002DE9F04F87B01F4615460E460446FFF73F
:1011D000F9F976B1804694F8340001280DD1002148
:1011E000A163E06D7A1982420FD9A06B40F00070C4
:1011F00006E0A06B40F0006002E0A06B40F0005001
:10120000A063012007B0BDE8F08F032084F834000C
:101210002068626CC1624FF40071012A18BF6D0230
:1012200000F09CFB70B1216840F2FF52C0F2400216
:101230008A63A16B0843A063012084F8340007B0DF
:10124000BDE8F08F4FF0FF300190780202909020BF
:1012500003900020059020684FF002094FF0010A2A
:1012600001A9CDF81090CDF818A000F0DDFA022FFA
:1012700007D3C4F830902068294600F0CFFB38B976
:1012800017E0C4F830A02068294600F0E1FB80B1E7
:10129000216840F2FF52C0F240028A63A16B08430A
:1012A000A0630120002184F83400216307B0BDE869
:1012B000F08FDDF84090DDF808B040F22A3A05E002
:1012C000FFF780F9A0EB080048454CD22068426B3C
:1012D000416B12EA0A0F12D1BBF1000F18BF11F4D3
:1012E0000040EDD0043E0825206800F0E3FA013DFF
:1012F00046F8040FF8D1ABF1200B0436E0E7022FDB
:1013000009D311F4807106D0616C032903D000F079
:101310004BFC0028BCD12068416B090736D4416BD7
:1013200089073CD4416B890642D42068BBF1000F89
:10133000416B18BF11F4001143D000F0BBFA46F81E
:10134000040BABF1040BFFF73DF9A0EB0800484597
:10135000EBD3206840F2FF51C0F240018163A06BE3
:1013600040F000409CE7206840F2FF51C0F240018D
:101370008163A06B40F00040A063012084F834003A
:1013800000202063032007B0BDE8F08F40F2FF513A
:10139000C0F240018163A06B40F0080080E740F29A
:1013A000FF51C0F240018163A06B40F0020077E77B
:1013B00040F2FF51C0F240018163A06B40F0200079
:1013C0006EE740F23A518163012084F83400002036
:1013D00007B0BDE8F08F000080B5FEF7B7FF80BD15
:1013E00080B5FEF7C9FF80BD2DE9F04F87B09B4661
:1013F00016460F460446FFF7E5F87FB1804694F89D
:10140000340001280ED10021A163E06D0BEB060230
:1014100082420FD9A06B40F0007006E0A06B40F054
:10142000006002E0A06B40F00050A063012007B014
:10143000BDE8F08F032084F834002068626CC1623C
:101440004FF40071012A18BF760200F087FA70B1DC
:10145000216840F2FF52C0F240028A63A16B084348
:10146000A063012084F8340007B0BDE8F08F4FF08E
:10147000FF3001904FEA4B20029090200390002013
:10148000CDE9040001212068069101A900F0CCF902
:10149000BBF1020F07D3202020632068314600F003
:1014A0009FFB38B917E0102020632068314600F018
:1014B000B1FB80B1216840F2FF52C0F240028A6362
:1014C000A16B0843A0630120002184F8340021634C
:1014D00007B0BDE8F08F109DDDF808A040F21A3982
:1014E0006E4605E0FFF76EF8A0EB0800A8424CD26C
:1014F0002068426B416B12EA090F25D1BAF1000F47
:1015000018BF11F48040EDD0043F4FF0080900BF30
:1015100017F8040F0090797840EA01200090B9781C
:1015200040EA01400090F97840EA016120680091AA
:10153000314600F0D9F9B9F10109E9D1AAF1200A3F
:10154000043740F21A39CDE7BBF1020F09D311F489
:10155000807106D0616C032903D000F025FB0028C0
:10156000A8D12068416B090720D4416B890726D494
:10157000416BC9062CD440F23A518163012084F8B2
:101580003400002007B0BDE8F08F206840F2FF5122
:10159000C0F240018163A06BA063012084F8340095
:1015A00000202063032007B0BDE8F08F40F2FF5118
:1015B000C0F240018163A06B40F0080082E740F276
:1015C000FF51C0F240018163A06B40F0020079E757
:1015D00040F2FF51C0F240018163A06B40F0100067
:1015E00070E7000080B500F065FF80BD002804BFF3
:1015F0000120704710B5044690F8390028B9002042
:1016000084F83800204600F021F8242084F83900BE
:101610002068C16821F40051C160204600F0C2FF7B
:101620002068016921F490410161416921F02A019A
:101630004161C16841F40051C16000202021E06394
:1016400084F8391084F83A1010BD00002DE9F043F9
:1016500087B000260696CDE9046641F200050068D1
:10166000C4F20105A8420396029602D007B0BDE875
:10167000F08343F630000196C4F20200416902ACE7
:1016800041F01001416141694FF0020801F0100181
:1016900001910199019601684FF0030941F00101A0
:1016A00001600168072701F001010191019901968C
:1016B000016841F0020101600068214600F002006B
:1016C000019001984FF40070029005F57040CDE94B
:1016D0000386CDF814900697FEF7AAFE8020CDE988
:1016E000020805F574402146CDE904690697FEF726
:1016F0009FFE07B0BDE8F083FEE7000080B542F62C
:10170000783040F21801C0F60000C2F20001FEF786
:101710003BFE40F2EC01C2F20001087080BD000007
:1017200081B0002143F630000091C4F2020002684B
:1017300042F004020260026802F004020092009A81
:101740000091026842F080020260026802F08002AA
:101750000092009A0091026842F001020260026861
:1017600002F001020092009A0091026842F0080221
:101770000260026802F008020092009A009101687B
:1017800041F002010160006800F002000090009842
:1017900001B0704740F2280042F60041C2F200005A
:1017A000C4F2010100220223C0E90012C0E90222B2
:1017B000C0E904228361704780B540F2AC0041F279
:1017C0000001C2F20000C4F2010100234FF00C0C32
:1017D0004FF4E13280E80E00C0E90333C0E905C3ED
:1017E000C361FFF703FF002818BFFEF7CBFD80BDE4
:1017F000FEE700007047000000F0070080F00703DC
:10180000042B28BF04234FF0FF3C03380CFA03F3EA
:1018100038BF0020994381400CFA00F022EA000012
:10182000084370477047000080B5024691E80950B0
:101830005062936208694EEA0C0318434969D36AFF
:10184000084323F0F70101430020D16280BD00006E
:101850000069C0B270470000006800F003007047E4
:10186000084440697047000080B540F22800C2F289
:101870000000FFF721FB80BD10B58446DDE9024082
:10188000114319432143DDF810E00843DCF804104C
:1018900047F6FF6240EA0E00914301430020CCF876
:1018A000041010BD80B5032101600220FEF7ACFDDD
:1018B000002080BDD0F880007047000080B5D1E9DD
:1018C00000C30246D1E9020EC2F808C018430969F4
:1018D00040EA0E000843D16840F6FF739943014384
:1018E0000020D16080BD0000096802460020C2F8D7
:1018F0008010704710B586B0044637200290402013
:101900000390002004904FF480600191059001A99C
:101910002046FFF7D3FF2046372141F2883200F0FE
:10192000AFF906B010BD000010B586B0044641F016
:10193000004040F480100190292002904020039044
:10194000002004904FF48060059001A92046FFF725
:10195000B5FF204600F05AFA06B010BD10B586B0AB
:1019600004461020029040200390002004904FF481
:1019700080600191059001A92046FFF79FFF204656
:10198000102141F2883200F07BF906B010BD000052
:1019900010B586B004460620029040200390002037
:1019A00004904FF480600191059001A92046FFF753
:1019B00085FF2046062141F2883200F061F906B029
:1019C00010BD000010B586B004460020CDE903002C
:1019D000CDE901004FF48060059001A92046FFF792
:1019E0006DFF204600F030F906B010BD10B586B08E
:1019F00004464FF4D57001900820029040200390D7
:101A0000002004904FF48060059001A92046FFF764
:101A100055FF204600F06CFA06B010BD10B586B038
:101A200004461220029040200390002004904FF4BE
:101A300080600191059001A92046FFF73FFF2046F5
:101A4000122141F2883200F01BF906B010BD0000EF
:101A500010B586B00446112002904020039000206B
:101A600004904FF480600191059001A92046FFF792
:101A700025FF2046112141F2883200F001F906B01D
:101A800010BD000010B586B004460720029040202B
:101A90000390002004904FF48060059001A9204637
:101AA0000192FFF70BFF2046072141F2883200F038
:101AB000E7F806B010BD000010B586B0022104465C
:101AC00000200291C0210190CDE903104FF4806005
:101AD000059001A92046FFF7F1FE204600F06AF9C3
:101AE00006B010BD10B586B0044609200290C02093
:101AF0000390002004904FF480600191059001A9AB
:101B00002046FFF7DBFE204600F054F906B010BD7A
:101B100010B586B033210446002002914021019087
:101B2000CDE903104FF48060059001A92046FFF72E
:101B3000C5FE2046332141F2883200F0A1F806B0FC
:101B400010BD000010B586B004460D200290402064
:101B50000390002004904FF480600191059001A94A
:101B60002046FFF7ABFE20460D2141F2883200F0FF
:101B700087F806B010BD0000B0B586B00C46032152
:101B800005460020029140210190CDE903104FF459
:101B90008060059001A92846FFF790FE284621465F
:101BA00000F05AF906B0B0BD10B586B00C2104465D
:101BB0000020029140210190CDE903104FF4806094
:101BC000059001A92046FFF779FE4EF20012C0F2FF
:101BD000F55220460C2100F053F806B010BD00006D
:101BE00010B586B0044619200290402003900020D2
:101BF00004904FF480600191059001A92046FFF701
:101C00005DFE2046192141F2883200F039F806B015
:101C100010BD000010B586B0044618200290402088
:101C20000390002004904FF480600191059001A979
:101C30002046FFF743FE2046182141F2883200F08B
:101C40001FF806B010BD000040F20801C2F200010A
:101C5000096844F6D352C1F26202A1FB0212510A92
:101C600041F288325143C943013124BF4FF0004053
:101C70007047426B1206F7D5C5218163002070477B
:101C800070B540F20803C2F200031B6844F6D35556
:101C9000C1F26205A3FB05340546600A50430E46B7
:101CA000013000BF013878D0696B11F0450FF9D0D1
:101CB00011F40061F6D1686B400771D4686BC007FE
:101CC00070D1C520A8632846FFF7C2FDB0421CBFF3
:101CD000012070BD284600210024FFF7C1FD4EF20F
:101CE0000801CFF6FF51084255D000285ED44100CC
:101CF00044BF402070BD810044BF802070BDC10042
:101D000044BF4FF4807070BD010144BF4FF40070B8
:101D100070BD410144BF4FF4806070BDC10144BF3C
:101D20004FF4006070BD010244BF4FF4805070BD9D
:101D3000410244BF4FF4005070BD810244BF4FF4D4
:101D4000804070BDC10244BF4FF4004070BD4103EC
:101D500044BF4FF4003070BD810344BF4FF4802076
:101D600070BDC10344BF4FF4002070BD010444BFE7
:101D70004FF4801070BD410444BF4FF4001070BD9B
:101D8000810444BF4FF4800070BD4FF4000400078D
:101D900058BF4FF48034204670BD4FF0004070BDF6
:101DA000042400E001242046AC6370BD4FF00070B5
:101DB00070BD000040F20801C2F20001096844F65B
:101DC000D352C1F26202A1FB0212510A41F28832DF
:101DD0005143C943013124BF4FF000407047426B6B
:101DE00012F0450FF6D012F40062F3D1416B4907AF
:101DF00006D4416BC90705D1C52181630020704716
:101E0000042100E0012181630846704740F2080187
:101E1000C2F20001096844F6D352C1F26202A1FB8A
:101E20000212510A41F288325143C943013124BFA1
:101E30004FF000407047426B12F0450FF6D012F49D
:101E40000062F3D1416B042211F0040108BFC522E6
:101E50008263084670470000B0B540F20802C2F243
:101E60000002126844F6D353C1F26203A2FB0323BB
:101E70000C460546580A41F288314843C04300BF2A
:101E8000013028D2696B11F0450FF9D011F40061CF
:101E9000F6D1686B400721D4686BC00721D1284672
:101EA000FFF7D6FC03281CBF0120B0BDC520A863E6
:101EB00028460021FFF7D4FC10F4604F14D04104F1
:101EC00044BF4FF40050B0BD00044FF4805058BFE1
:101ED0004FF48030B0BD4FF00040B0BD0420A86387
:101EE000B0BD0120A863B0BD000C20800020B0BDB3
:101EF00040F20801C2F20001096844F6D352C1F26F
:101F00006202A1FB0212510A41F288325143C943D5
:101F1000013124BF4FF000407047426B12F0450F73
:101F2000F6D012F40062F3D1416B49070BD4416B38
:101F3000C9070AD1416B49065CBF002070474021A8
:101F4000816300207047042100E00121816308467D
:101F50007047000010B540F20404C2F200040120F2
:101F60002070FEF7ADF908B1207810BD207800F0A0
:101F7000FE002070207810BD10B5846B40F23A51FD
:101F8000206881632046FEF785FF0121053884F82B
:101F9000341000210128216305D82068FFF704FED2
:101FA000A16B0843A063A06B18B12046FEF77EFE2C
:101FB00010BD2046FEF73CFE10BD000010B5846B3E
:101FC00040F23A51206881632046FEF763FF012109
:101FD000053884F8341000210128216305D82068D1
:101FE000FFF7E2FDA16B0843A063A06B18B1204688
:101FF000FEF75CFE10BD2046FEF71AFE10BD000085
:102000002DE9F04389B088460546FEF7DBFA06461F
:1020100000212868019100910821FFF79FFC10B171
:1020200009B0BDE8F083296D28680904FFF762FC58
:102030000028F5D14FF0FF300390082004903020A5
:102040000590022006900020079001212868089141
:1020500003A9FFF7E9FB2868FFF75AFD0028DFD145
:10206000002740F22A44E94607E000BFFEF7AAFA3B
:10207000801B01304FF00040D2D029684A6B486B7A
:10208000224208D18002F1D50846FFF713FC49F837
:1020900027000137EAE7000712D4486B800711D404
:1020A000486B800610D440F23A508863DDE9001096
:1020B00000BA09BAC8E90001002009B0BDE8F08300
:1020C000082002E0022000E02020886309B0BDE87B
:1020D000F083000010B590B0044600680121ADF80F
:1020E0001210FFF7B9FB40B1606C032821D02068C3
:1020F000FFF7E2FC28B110B010BD4FF0806010B0C7
:1021000010BD20680021FFF7ABFB2168606708461F
:102110000421FFF7A5FB2168A06708460821FFF707
:102120009FFB2168E06708460C21FFF799FBC4F884
:102130008000606C032806D020680DF11201FFF7C3
:102140001BFD0028D7D1606C03281FD0BDF81210EA
:10215000206821650904FFF7C5FC0028CBD1206861
:102160000021FFF77DFB2168606608460421FFF728
:1021700077FB2168A06608460821FFF771FB2168FC
:10218000E06608460C21FFF76BFB206720680421FE
:10219000FFF766FB000DE06405A92046FEF7ACFDE5
:1021A00018B14FF0805010B010BD216D20680A04A6
:1021B0000023FFF767FC00289DD194E80F50A46925
:1021C000CDE900CE0294FFF757FB002010B010BD00
:1021D000F0B581B00446002000902068FFF7F2FBC4
:1021E00008B101B0F0BD2068FFF700FC38B12068ED
:1021F0000021A164FFF7E6FB0028F2D101E00120F5
:10220000A064A06C012808D120680021FFF772FBB0
:1022100018B14FF0805001B0F0BD00984FF6FE7637
:10222000B04221D80025CCF210154FF6FF7700BF41
:1022300020680021FFF75EFB0028D2D120682946E4
:10224000FFF772FB0028E4D120680021FFF708FBAC
:102250000099002801F101010091009901D4B942CF
:10226000E6D3C0F3807000E000200099B14203D9AA
:102270004FF0807001B0F0BD6064002001B0F0BD8F
:10228000F0B581B0C56A7DB10446806A0827061F93
:102290002068FFF70FFB013F46F8040FF8D1A5F1C6
:1022A0002000311DC4E90A1001B0F0BD70B551B174
:1022B0000C46016D064600680904FFF743FC05461D
:1022C00020B1284670BD4FF0006070BD306800211D
:1022D0000025FFF7C5FA2060284670BD10B582B012
:1022E000044600210068019100910021FFF7B8FA2F
:1022F000800106D469462046FFF782FE28B102B06D
:1023000010BD4FF4006002B010BD9DF80600C0077C
:1023100003D14FF0806002B010BD216D2068090428
:10232000FFF7E8FA0028EAD120680021FFF730FB28
:1023300002B010BD10B582B00446002100680191C2
:1023400000910021FFF78CFA800106D469462046EF
:10235000FFF756FE28B102B010BD4FF4006002B086
:1023600010BD9DF80600400703D44FF0806002B016
:1023700010BD216D20680904FFF7BCFA0028EAD1DE
:1023800020680221FFF704FB02B010BD2DE9F041E7
:1023900082B0D0F82480B8F1000F1FD00446006A44
:1023A0000826071F01AD00BF17F8040F01907978C8
:1023B00040EA01200190B97840EA01400190F978A3
:1023C00040EA0161206801912946FFF78DFA013E3C
:1023D000EAD1A8F12000391DC4E9081002B0BDE817
:1023E000F081000010B540F20404C2F200040120A4
:1023F0002070FDF771FF08B1207810BDFFF7AAFD2E
:102400002070207810BD000010B588B040F20400A4
:10241000C2F200000078C0070CD1084603290CD88E
:102420001446DFE800F00B020D136846FDF73EFF8F
:10243000069810E0032008B010BD042008B010BDBD
:102440006846FDF733FF0798208005E06846FDF7F2
:102450002DFF0798400A2060002008B010BD000042
:1024600080B5084611461A464FF0FF33FDF75AFF74
:1024700000281CBF012080BDFDF722FF0028FBD1F2
:10248000002080BD80B5FFF765FD80BD80B50846A2
:1024900011461A464FF0FF33FDF75AFF00281CBFC4
:1024A000012080BDFDF70CFF0028FBD1002080BD7E
:1024B00070470000B0B501380024B4EB106F1CBFAA
:1024C0000120B0BD4EF21005CEF2000568604FF05D
:1024D000FF300F2100F036F90720AC60286020465D
:1024E000B0BD000080B5FEF773F880BD70B592B046
:1024F00006AC20463021FDF79BFE002543F6400048
:102500000595CDE90355CDE901550095C4F20200CA
:102510000168022641F080510160006800F080509F
:102520000090009847F200000095C4F20000016896
:1025300041F480410160006800F480400090009800
:10254000012006904FF4803007904FF480000D90EA
:1025500004200E90A8200C96CDE90F0607201190BC
:102560002046FEF7CBF90F20CDE901064FF4A0502D
:1025700004904FF48050059001A805210395FEF7C3
:10258000ADF812B070BD00004EF68850CEF20000DB
:10259000016841F4700101604FF0006140F8801C57
:1025A00070470000B0B50546006805F108030ECB82
:1025B0000469194324F44054224302616A69EB69B7
:1025C0001143C26849F20C641943A2431143C1602C
:1025D0004169AA6921F440711143416141F200410E
:1025E000B3F5004F40F48060C4F2010124D1884269
:1025F00046D1FEF73BF96B681921A0FB01015A0097
:10260000DB0FFDF7DDFD48F21F51C5F2EB11A0FB1A
:1026100001235A096FF0630302FB0300322303EB2B
:10262000C000A0FB01014FF4F87000EA111000EBAC
:102630000210C1F3421167E0884244D1FEF716F957
:102640006B681921A0FB01019A009B0FFDF7B8FDF3
:1026500048F21F51C5F2EB11A0FB01235A096FF09C
:10266000630302FB0300322303EB0010A0FB010114
:10267000F02000EA511000EB0210C1F3431143E0D7
:10268000FEF7E2F86B681921A0FB01015A00DB0F8D
:10269000FDF796FD48F21F51C5F2EB11A0FB012397
:1026A0005A096FF0630302FB0300322303EBC000FF
:1026B000A0FB01014FF4F87000EA111000EB0210CA
:1026C000C1F3421120E0FEF7BFF86B681921A0FBAF
:1026D00001019A009B0FFDF773FD48F21F51C5F2EF
:1026E000EB11A0FB01235A096FF0630302FB030007
:1026F000322303EB0010A0FB0101F02000EA51108F
:1027000000EB0210C1F343112A6808439060B0BD8A
:10271000FEE70000002848BF704700F01F010122BB
:1027200002FA01F14EF200124009CEF2000242F824
:10273000201070474EF60C50CEF200000068C0F337
:10274000022070474EF6145300F00F02CEF2000341
:1027500009011A4400F16043B0F1FF3FC8BF03F51F
:1027600064421170704700004EF60C51CEF2000129
:102770000A684FF6FF031A4060F30A2242F08060B5
:1027800040F0FD700860704741F20001C4F20101A1
:102790000A685206FCD5C2B24A607047B0B586B02E
:1027A000FDF724FFFFF7A2FEFEF7BAFFFEF7F2FFE8
:1027B000FFF702F8FEF7A2FF1FA000F0BFF940F2FA
:1027C0002804C2F200042046FEF764FB042828D146
:1027D00042F68C30C0F6000000F0B0F942F6A030AE
:1027E000C0F6000000F0AAF9D4E91501A0FB01230E
:1027F0001EA000F06DF8A16D22A000F069F8216D17
:1028000026A000F065F8616C27A000F061F8694629
:102810002046FEF74DFA9DF8001027A000F058F86A
:10282000FEE705460AA000F089F90EA0294600F04F
:102830004FF8002006B0B0BD4D6963726F2053445D
:10284000204361726420546573742E2E2E0D000097
:102850005344206361726420696E69742066616903
:102860006C210D00636F64653A25640043617264F6
:1028700043617061636974793A20256C6C750D0A47
:102880000000000043617264426C6F636B53697AAD
:10289000653A202564200D0A000000005243413AA9
:1028A000202564200D0A000043617264547970652C
:1028B0003A202564200D0A004D616E7566616374CF
:1028C0007572657249443A202564200D0A000000A3
:1028D0000FB4054B10B503A9044A029800F018F88C
:1028E00010BC5DF814FB00008927000800000020E0
:1028F00002E008C8121F08C1002AFAD170477047C9
:10290000002001E001C1121F002AFBD17047000026
:102910002DE9FF4F8BB09A460F460446002606E08D
:1029200025280BD052460D999047641C761C2078C0
:102930000028F5D10FB03046BDE8F08F0025A9463C
:1029400001227D4900E0054314F8013F203B02FAD3
:1029500003F00842F7D120782E2817D114F8010F80
:1029600045F004052A280ED06FF02F022078A0F140
:10297000300109290AD809EB890102EB410100EB7A
:102980000109641CF2E757F8049B641C20786C284A
:102990000DD004DC4C2812D06A2811D104E0742830
:1029A0000DD07A280CD10AE045F4001507E06178D3
:1029B00045F48015814202D1641C05F58015641C24
:1029C000207869283ED006DC0028B3D063280BD0DD
:1029D000642804D136E0732810D075285CD05246A4
:1029E0000D999047761CA5E017F8040B8DF80000B0
:1029F00000208DF80100E846012003E057F8048B21
:102A00004FF0FF3069074FF0000501D40AE06D1C5C
:102A10004D450DDA8542FADB18F805100029F6D18C
:102A200006E06D1C8542FCDB18F805100029F8D182
:102A30002E4404E018F8010B52460D9990476D1E84
:102A4000F8D277E000200A90C5F302504FF00A0B4D
:102A500002280CD001CFC117021E71F100020CDA5E
:102A60000023D0EB030063EB01012D2208E0FF1DE2
:102A700027F00707F7E80201EEE72A0504D52B2225
:102A80008DF82420012203E0EA070FD02022F7E787
:102A90000DF12008089218E000200A90C5F30250BA
:102AA0004FF00A0B022803D001CF00210022EFE7EC
:102AB000FF1D27F00707F7E80201F7E75A460A9BD0
:102AC000FDF77EFB303208F8012D50EA0102F5D106
:102AD000ADEB080000F1200B680701D44FF00109AD
:102AE000D94502DDA9EB0B0000E00020814600255E
:102AF00006E009A85246405D0D9990476D1C761C72
:102B000008988542F5DB04E0302052460D99904745
:102B1000761CB9F10001A9F10109F5DC05E018F80E
:102B2000010B52460D999047761CBBF10001ABF1A9
:102B3000010BF4DC641CFAE60928010010B5044618
:102B400001E0FFF721FE14F8010B04490028F8D139
:102B5000BDE810400A20FFF717BE0000000000206B
:102B6000000000000000000001020304060708093D
:102B70000000000001020304E5230008852400088A
:102B8000612400088D2400080924000853442063B0
:102B900061726420696E6974206F6B210D0A0D00EB
:102BA0005344206361726420696E666F726D617454
:102BB000696F6E210D000000D82B00080000002076
:102BC00018000000F0280008F02B00081800002072
:102BD000E0040000002900080000000001000000DF
:102BE0000024F400010000001000000000000000BC
:040000050800018965
:00000001FF
